{
  "_format": "hh-sol-artifact-1",
  "contractName": "FakeIexecRateOracle",
  "sourceName": "contracts/FakeIexecOracle.sol",
  "abi": [
    {
      "inputs": [],
      "stateMutability": "nonpayable",
      "type": "constructor"
    },
    {
      "anonymous": false,
      "inputs": [
        {
          "indexed": true,
          "internalType": "address",
          "name": "previousOwner",
          "type": "address"
        },
        {
          "indexed": true,
          "internalType": "address",
          "name": "newOwner",
          "type": "address"
        }
      ],
      "name": "OwnershipTransferred",
      "type": "event"
    },
    {
      "inputs": [
        {
          "internalType": "string",
          "name": "_rateIndex",
          "type": "string"
        },
        {
          "internalType": "bytes32",
          "name": "_oracleKey",
          "type": "bytes32"
        }
      ],
      "name": "addOrUpdateOracleKey",
      "outputs": [],
      "stateMutability": "nonpayable",
      "type": "function"
    },
    {
      "inputs": [
        {
          "internalType": "string",
          "name": "_currencyPair",
          "type": "string"
        }
      ],
      "name": "getRate",
      "outputs": [
        {
          "internalType": "int256",
          "name": "_rate",
          "type": "int256"
        },
        {
          "internalType": "uint256",
          "name": "_date",
          "type": "uint256"
        }
      ],
      "stateMutability": "view",
      "type": "function"
    },
    {
      "inputs": [],
      "name": "oracleAddress",
      "outputs": [
        {
          "internalType": "address",
          "name": "",
          "type": "address"
        }
      ],
      "stateMutability": "view",
      "type": "function"
    },
    {
      "inputs": [],
      "name": "owner",
      "outputs": [
        {
          "internalType": "address",
          "name": "",
          "type": "address"
        }
      ],
      "stateMutability": "view",
      "type": "function"
    },
    {
      "inputs": [
        {
          "internalType": "string",
          "name": "",
          "type": "string"
        }
      ],
      "name": "rateIndexToOracleKey",
      "outputs": [
        {
          "internalType": "bytes32",
          "name": "",
          "type": "bytes32"
        }
      ],
      "stateMutability": "view",
      "type": "function"
    },
    {
      "inputs": [
        {
          "internalType": "string",
          "name": "",
          "type": "string"
        }
      ],
      "name": "rateIndexToRateData",
      "outputs": [
        {
          "internalType": "int256",
          "name": "rate",
          "type": "int256"
        },
        {
          "internalType": "uint256",
          "name": "timestamp",
          "type": "uint256"
        }
      ],
      "stateMutability": "view",
      "type": "function"
    },
    {
      "inputs": [],
      "name": "renounceOwnership",
      "outputs": [],
      "stateMutability": "nonpayable",
      "type": "function"
    },
    {
      "inputs": [
        {
          "internalType": "address",
          "name": "newOwner",
          "type": "address"
        }
      ],
      "name": "transferOwnership",
      "outputs": [],
      "stateMutability": "nonpayable",
      "type": "function"
    },
    {
      "inputs": [
        {
          "internalType": "address",
          "name": "_oracleAddress",
          "type": "address"
        }
      ],
      "name": "updateOracleAddress",
      "outputs": [],
      "stateMutability": "nonpayable",
      "type": "function"
    },
    {
      "inputs": [
        {
          "internalType": "string",
          "name": "_currencyPair",
          "type": "string"
        }
      ],
      "name": "updateRate",
      "outputs": [],
      "stateMutability": "nonpayable",
      "type": "function"
    }
  ],
  "bytecode": "0x6080604052600380546001600160a01b0319167336da71ccad7a67053f0a4d9d5f55b725c9a25a3e17905534801561003657600080fd5b5061004033610168565b61005460016101b860201b6103b21760201c565b600354600280546001600160a01b0319166001600160a01b039092169190911790556040517f86bb403e4f69c1bb69a6968c4301a2c625418a9cd5a6bbea7c5c1154bde66350906004906100b5906608aaaa45a8aa8960cb1b815260070190565b908152604051908190036020018120919091557f3b2a4f0ea99be0c500ece0ce3c4444bc48c3121e73efde91be84bc6f579b088c9060049061010490660aaa6885a8aa8960cb1b815260070190565b908152604051908190036020018120919091557f3b2a4f0ea99be0c500ece0ce3c4444bc48c3121e73efde91be84bc6f579b088c9060049061015390665553442d53484960c81b815260070190565b908152604051908190036020019020556101c1565b600080546001600160a01b038381166001600160a01b0319831681178455604051919092169283917f8be0079c531659141344cd1fd0a4f28419497f9722a3daafe3b4186f6b6457e09190a35050565b80546001019055565b6106a1806101d06000396000f3fe608060405234801561001057600080fd5b506004361061009e5760003560e01c8063a89ae4ba11610066578063a89ae4ba1461014b578063ae558b481461015e578063cd4f769d14610171578063f2fde38b146101a3578063f7023bb6146101b657600080fd5b80630dae0754146100a35780636c0daed8146100b8578063715018a6146100e55780638da5cb5b146100ed578063932f002414610112575b600080fd5b6100b66100b1366004610508565b6101c9565b005b6100cb6100c6366004610545565b610285565b604080519283526020830191909152015b60405180910390f35b6100b66102ce565b6000546001600160a01b03165b6040516001600160a01b0390911681526020016100dc565b61013d610120366004610508565b805160208183018101805160048252928201919093012091525481565b6040519081526020016100dc565b6003546100fa906001600160a01b031681565b6100b661016c3660046105b7565b6102e2565b6100cb61017f366004610508565b80516020818301810180516005825292820191909301209152805460019091015482565b6100b66101b13660046105fc565b61030f565b6100b66101c43660046105fc565b610388565b60006004826040516101db919061062c565b9081526020016040518091039020549050806000801b036102345760405162461bcd60e51b815260206004820152600e60248201526d14985d19481b9bdd08199bdd5b9960921b60448201526064015b60405180910390fd5b604051806040016040528066030747d3588c00815260200163637e065e815250600583604051610264919061062c565b90815260405160209181900382019020825181559101516001909101555050565b60008060006005858560405161029c92919061065b565b908152604080516020928190038301812081830190925281548082526001909201549201829052969095509350505050565b6102d66103bb565b6102e06000610415565b565b6102ea6103bb565b806004836040516102fb919061062c565b908152604051908190036020019020555050565b6103176103bb565b6001600160a01b03811661037c5760405162461bcd60e51b815260206004820152602660248201527f4f776e61626c653a206e6577206f776e657220697320746865207a65726f206160448201526564647265737360d01b606482015260840161022b565b61038581610415565b50565b6103906103bb565b600380546001600160a01b0319166001600160a01b0392909216919091179055565b80546001019055565b6000546001600160a01b031633146102e05760405162461bcd60e51b815260206004820181905260248201527f4f776e61626c653a2063616c6c6572206973206e6f7420746865206f776e6572604482015260640161022b565b600080546001600160a01b038381166001600160a01b0319831681178455604051919092169283917f8be0079c531659141344cd1fd0a4f28419497f9722a3daafe3b4186f6b6457e09190a35050565b634e487b7160e01b600052604160045260246000fd5b600082601f83011261048c57600080fd5b813567ffffffffffffffff808211156104a7576104a7610465565b604051601f8301601f19908116603f011681019082821181831017156104cf576104cf610465565b816040528381528660208588010111156104e857600080fd5b836020870160208301376000602085830101528094505050505092915050565b60006020828403121561051a57600080fd5b813567ffffffffffffffff81111561053157600080fd5b61053d8482850161047b565b949350505050565b6000806020838503121561055857600080fd5b823567ffffffffffffffff8082111561057057600080fd5b818501915085601f83011261058457600080fd5b81358181111561059357600080fd5b8660208285010111156105a557600080fd5b60209290920196919550909350505050565b600080604083850312156105ca57600080fd5b823567ffffffffffffffff8111156105e157600080fd5b6105ed8582860161047b565b95602094909401359450505050565b60006020828403121561060e57600080fd5b81356001600160a01b038116811461062557600080fd5b9392505050565b6000825160005b8181101561064d5760208186018101518583015201610633565b506000920191825250919050565b818382376000910190815291905056fea2646970667358221220dbd0796e8777fb5fa389ba2ca4026bdad872ffdf4e6330ca9182f55c1d55af0e64736f6c63430008110033",
  "linkReferences": {},
  "deployedLinkReferences": {}
}