{
  "_format": "hh-sol-artifact-1",
  "contractName": "IexecRateOracle",
  "sourceName": "contracts/IexecRateOracle.sol",
  "abi": [
    {
      "inputs": [],
      "stateMutability": "nonpayable",
      "type": "constructor"
    },
    {
      "anonymous": false,
      "inputs": [
        {
          "indexed": true,
          "internalType": "address",
          "name": "previousOwner",
          "type": "address"
        },
        {
          "indexed": true,
          "internalType": "address",
          "name": "newOwner",
          "type": "address"
        }
      ],
      "name": "OwnershipTransferred",
      "type": "event"
    },
    {
      "inputs": [
        {
          "internalType": "string",
          "name": "_rateIndex",
          "type": "string"
        },
        {
          "internalType": "bytes32",
          "name": "_oracleKey",
          "type": "bytes32"
        }
      ],
      "name": "addOrUpdateOracleKey",
      "outputs": [],
      "stateMutability": "nonpayable",
      "type": "function"
    },
    {
      "inputs": [
        {
          "internalType": "string",
          "name": "_currencyPair",
          "type": "string"
        }
      ],
      "name": "getRate",
      "outputs": [
        {
          "internalType": "int256",
          "name": "_rate",
          "type": "int256"
        },
        {
          "internalType": "uint256",
          "name": "_date",
          "type": "uint256"
        }
      ],
      "stateMutability": "view",
      "type": "function"
    },
    {
      "inputs": [],
      "name": "oracleAddress",
      "outputs": [
        {
          "internalType": "address",
          "name": "",
          "type": "address"
        }
      ],
      "stateMutability": "view",
      "type": "function"
    },
    {
      "inputs": [],
      "name": "owner",
      "outputs": [
        {
          "internalType": "address",
          "name": "",
          "type": "address"
        }
      ],
      "stateMutability": "view",
      "type": "function"
    },
    {
      "inputs": [
        {
          "internalType": "string",
          "name": "",
          "type": "string"
        }
      ],
      "name": "rateIndexToOracleKey",
      "outputs": [
        {
          "internalType": "bytes32",
          "name": "",
          "type": "bytes32"
        }
      ],
      "stateMutability": "view",
      "type": "function"
    },
    {
      "inputs": [
        {
          "internalType": "string",
          "name": "",
          "type": "string"
        }
      ],
      "name": "rateIndexToRateData",
      "outputs": [
        {
          "internalType": "int256",
          "name": "rate",
          "type": "int256"
        },
        {
          "internalType": "uint256",
          "name": "timestamp",
          "type": "uint256"
        }
      ],
      "stateMutability": "view",
      "type": "function"
    },
    {
      "inputs": [],
      "name": "renounceOwnership",
      "outputs": [],
      "stateMutability": "nonpayable",
      "type": "function"
    },
    {
      "inputs": [
        {
          "internalType": "address",
          "name": "newOwner",
          "type": "address"
        }
      ],
      "name": "transferOwnership",
      "outputs": [],
      "stateMutability": "nonpayable",
      "type": "function"
    },
    {
      "inputs": [
        {
          "internalType": "address",
          "name": "_oracleAddress",
          "type": "address"
        }
      ],
      "name": "updateOracleAddress",
      "outputs": [],
      "stateMutability": "nonpayable",
      "type": "function"
    },
    {
      "inputs": [
        {
          "internalType": "string",
          "name": "_currencyPair",
          "type": "string"
        }
      ],
      "name": "updateRate",
      "outputs": [],
      "stateMutability": "nonpayable",
      "type": "function"
    }
  ],
  "bytecode": "0x6080604052600380546001600160a01b0319167336da71ccad7a67053f0a4d9d5f55b725c9a25a3e17905534801561003657600080fd5b5061004033610168565b61005460016101b860201b61041e1760201c565b600354600280546001600160a01b0319166001600160a01b039092169190911790556040517f86bb403e4f69c1bb69a6968c4301a2c625418a9cd5a6bbea7c5c1154bde66350906004906100b5906608aaaa45a8aa8960cb1b815260070190565b908152604051908190036020018120919091557f3b2a4f0ea99be0c500ece0ce3c4444bc48c3121e73efde91be84bc6f579b088c9060049061010490660aaa6885a8aa8960cb1b815260070190565b908152604051908190036020018120919091557f3b2a4f0ea99be0c500ece0ce3c4444bc48c3121e73efde91be84bc6f579b088c9060049061015390665553442d53484960c81b815260070190565b908152604051908190036020019020556101c1565b600080546001600160a01b038381166001600160a01b0319831681178455604051919092169283917f8be0079c531659141344cd1fd0a4f28419497f9722a3daafe3b4186f6b6457e09190a35050565b80546001019055565b610731806101d06000396000f3fe608060405234801561001057600080fd5b506004361061009e5760003560e01c8063a89ae4ba11610066578063a89ae4ba1461014b578063ae558b481461015e578063cd4f769d14610171578063f2fde38b146101a3578063f7023bb6146101b657600080fd5b80630dae0754146100a35780636c0daed8146100b8578063715018a6146100e55780638da5cb5b146100ed578063932f002414610112575b600080fd5b6100b66100b1366004610574565b6101c9565b005b6100cb6100c63660046105b1565b6102f1565b604080519283526020830191909152015b60405180910390f35b6100b661033a565b6000546001600160a01b03165b6040516001600160a01b0390911681526020016100dc565b61013d610120366004610574565b805160208183018101805160048252928201919093012091525481565b6040519081526020016100dc565b6003546100fa906001600160a01b031681565b6100b661016c366004610623565b61034e565b6100cb61017f366004610574565b80516020818301810180516005825292820191909301209152805460019091015482565b6100b66101b1366004610668565b61037b565b6100b66101c4366004610668565b6103f4565b60006004826040516101db9190610698565b9081526020016040518091039020549050806000801b036102345760405162461bcd60e51b815260206004820152600e60248201526d14985d19481b9bdd08199bdd5b9960921b60448201526064015b60405180910390fd5b600254604051636e4becb160e11b81526004810183905260009182916001600160a01b039091169063dc97d962906024016040805180830381865afa158015610281573d6000803e3d6000fd5b505050506040513d601f19601f820116820180604052508101906102a591906106c7565b915091506040518060400160405280838152602001828152506005856040516102ce9190610698565b908152604051602091819003820190208251815591015160019091015550505050565b6000806000600585856040516103089291906106eb565b908152604080516020928190038301812081830190925281548082526001909201549201829052969095509350505050565b610342610427565b61034c6000610481565b565b610356610427565b806004836040516103679190610698565b908152604051908190036020019020555050565b610383610427565b6001600160a01b0381166103e85760405162461bcd60e51b815260206004820152602660248201527f4f776e61626c653a206e6577206f776e657220697320746865207a65726f206160448201526564647265737360d01b606482015260840161022b565b6103f181610481565b50565b6103fc610427565b600380546001600160a01b0319166001600160a01b0392909216919091179055565b80546001019055565b6000546001600160a01b0316331461034c5760405162461bcd60e51b815260206004820181905260248201527f4f776e61626c653a2063616c6c6572206973206e6f7420746865206f776e6572604482015260640161022b565b600080546001600160a01b038381166001600160a01b0319831681178455604051919092169283917f8be0079c531659141344cd1fd0a4f28419497f9722a3daafe3b4186f6b6457e09190a35050565b634e487b7160e01b600052604160045260246000fd5b600082601f8301126104f857600080fd5b813567ffffffffffffffff80821115610513576105136104d1565b604051601f8301601f19908116603f0116810190828211818310171561053b5761053b6104d1565b8160405283815286602085880101111561055457600080fd5b836020870160208301376000602085830101528094505050505092915050565b60006020828403121561058657600080fd5b813567ffffffffffffffff81111561059d57600080fd5b6105a9848285016104e7565b949350505050565b600080602083850312156105c457600080fd5b823567ffffffffffffffff808211156105dc57600080fd5b818501915085601f8301126105f057600080fd5b8135818111156105ff57600080fd5b86602082850101111561061157600080fd5b60209290920196919550909350505050565b6000806040838503121561063657600080fd5b823567ffffffffffffffff81111561064d57600080fd5b610659858286016104e7565b95602094909401359450505050565b60006020828403121561067a57600080fd5b81356001600160a01b038116811461069157600080fd5b9392505050565b6000825160005b818110156106b9576020818601810151858301520161069f565b506000920191825250919050565b600080604083850312156106da57600080fd5b505080516020909101519092909150565b818382376000910190815291905056fea2646970667358221220017d5f308414682047fb05342bb6168f0ef206b88844274161a7f161bccf8b5264736f6c63430008110033",
  "linkReferences": {},
  "deployedLinkReferences": {}
}