{
  "_format": "hh-sol-artifact-1",
  "contractName": "Lease",
  "sourceName": "contracts/Lease.sol",
  "abi": [
    {
      "inputs": [
        {
          "internalType": "address",
          "name": "_ownerContract",
          "type": "address"
        },
        {
          "internalType": "address",
          "name": "_tenantContract",
          "type": "address"
        },
        {
          "internalType": "address",
          "name": "_rateOracle",
          "type": "address"
        }
      ],
      "stateMutability": "nonpayable",
      "type": "constructor"
    },
    {
      "anonymous": false,
      "inputs": [
        {
          "indexed": false,
          "internalType": "uint256",
          "name": "leaseId",
          "type": "uint256"
        },
        {
          "indexed": false,
          "internalType": "bool",
          "name": "cancelledByOwner",
          "type": "bool"
        },
        {
          "indexed": false,
          "internalType": "bool",
          "name": "cancelledByTenant",
          "type": "bool"
        }
      ],
      "name": "CancellationRequested",
      "type": "event"
    },
    {
      "anonymous": false,
      "inputs": [
        {
          "indexed": false,
          "internalType": "uint256",
          "name": "leaseId",
          "type": "uint256"
        },
        {
          "indexed": false,
          "internalType": "uint256",
          "name": "rentId",
          "type": "uint256"
        },
        {
          "indexed": false,
          "internalType": "bool",
          "name": "withoutIssues",
          "type": "bool"
        },
        {
          "indexed": false,
          "internalType": "uint256",
          "name": "amount",
          "type": "uint256"
        }
      ],
      "name": "CryptoRentPaid",
      "type": "event"
    },
    {
      "anonymous": false,
      "inputs": [
        {
          "indexed": false,
          "internalType": "uint256",
          "name": "leaseId",
          "type": "uint256"
        },
        {
          "indexed": false,
          "internalType": "uint256",
          "name": "rentId",
          "type": "uint256"
        },
        {
          "indexed": false,
          "internalType": "bool",
          "name": "withoutIssues",
          "type": "bool"
        },
        {
          "indexed": false,
          "internalType": "uint256",
          "name": "amount",
          "type": "uint256"
        },
        {
          "indexed": false,
          "internalType": "int256",
          "name": "exchangeRate",
          "type": "int256"
        },
        {
          "indexed": false,
          "internalType": "uint256",
          "name": "exchangeRateTimestamp",
          "type": "uint256"
        }
      ],
      "name": "FiatRentPaid",
      "type": "event"
    },
    {
      "anonymous": false,
      "inputs": [
        {
          "indexed": false,
          "internalType": "uint256",
          "name": "leaseId",
          "type": "uint256"
        },
        {
          "indexed": false,
          "internalType": "uint256",
          "name": "tenantId",
          "type": "uint256"
        },
        {
          "indexed": false,
          "internalType": "uint256",
          "name": "ownerId",
          "type": "uint256"
        },
        {
          "indexed": false,
          "internalType": "uint256",
          "name": "rentAmount",
          "type": "uint256"
        },
        {
          "indexed": false,
          "internalType": "uint8",
          "name": "totalNumberOfRents",
          "type": "uint8"
        },
        {
          "indexed": false,
          "internalType": "address",
          "name": "paymentToken",
          "type": "address"
        },
        {
          "indexed": false,
          "internalType": "uint256",
          "name": "rentPaymentInterval",
          "type": "uint256"
        },
        {
          "indexed": false,
          "internalType": "uint256",
          "name": "rentPaymentLimitTime",
          "type": "uint256"
        },
        {
          "indexed": false,
          "internalType": "uint256",
          "name": "startDate",
          "type": "uint256"
        },
        {
          "indexed": false,
          "internalType": "string",
          "name": "currencyPair",
          "type": "string"
        }
      ],
      "name": "LeaseCreated",
      "type": "event"
    },
    {
      "anonymous": false,
      "inputs": [
        {
          "indexed": false,
          "internalType": "uint256",
          "name": "leaseId",
          "type": "uint256"
        },
        {
          "indexed": false,
          "internalType": "string",
          "name": "metaData",
          "type": "string"
        }
      ],
      "name": "LeaseMetaDataUpdated",
      "type": "event"
    },
    {
      "anonymous": false,
      "inputs": [
        {
          "indexed": false,
          "internalType": "uint256",
          "name": "leaseId",
          "type": "uint256"
        },
        {
          "indexed": false,
          "internalType": "string",
          "name": "reviewUri",
          "type": "string"
        }
      ],
      "name": "LeaseReviewedByOwner",
      "type": "event"
    },
    {
      "anonymous": false,
      "inputs": [
        {
          "indexed": false,
          "internalType": "uint256",
          "name": "leaseId",
          "type": "uint256"
        },
        {
          "indexed": false,
          "internalType": "string",
          "name": "reviewUri",
          "type": "string"
        }
      ],
      "name": "LeaseReviewedByTenant",
      "type": "event"
    },
    {
      "anonymous": false,
      "inputs": [
        {
          "indexed": false,
          "internalType": "uint256",
          "name": "leaseId",
          "type": "uint256"
        }
      ],
      "name": "LeaseValidated",
      "type": "event"
    },
    {
      "anonymous": false,
      "inputs": [
        {
          "indexed": false,
          "internalType": "uint256",
          "name": "leaseId",
          "type": "uint256"
        },
        {
          "indexed": false,
          "internalType": "uint256",
          "name": "rentId",
          "type": "uint256"
        }
      ],
      "name": "RentNotPaid",
      "type": "event"
    },
    {
      "anonymous": false,
      "inputs": [
        {
          "indexed": false,
          "internalType": "uint256",
          "name": "leaseId",
          "type": "uint256"
        },
        {
          "indexed": false,
          "internalType": "uint256",
          "name": "rentId",
          "type": "uint256"
        },
        {
          "indexed": false,
          "internalType": "bool",
          "name": "withoutIssues",
          "type": "bool"
        }
      ],
      "name": "RentPaymentIssueStatusUpdated",
      "type": "event"
    },
    {
      "anonymous": false,
      "inputs": [
        {
          "indexed": false,
          "internalType": "uint256",
          "name": "leaseId",
          "type": "uint256"
        },
        {
          "indexed": false,
          "internalType": "uint256",
          "name": "rentId",
          "type": "uint256"
        }
      ],
      "name": "SetRentToPending",
      "type": "event"
    },
    {
      "anonymous": false,
      "inputs": [
        {
          "indexed": false,
          "internalType": "uint256",
          "name": "leaseId",
          "type": "uint256"
        },
        {
          "indexed": false,
          "internalType": "enum Lease.LeaseStatus",
          "name": "status",
          "type": "uint8"
        }
      ],
      "name": "UpdateLeaseStatus",
      "type": "event"
    },
    {
      "inputs": [],
      "name": "DIVIDER",
      "outputs": [
        {
          "internalType": "uint64",
          "name": "",
          "type": "uint64"
        }
      ],
      "stateMutability": "view",
      "type": "function"
    },
    {
      "inputs": [
        {
          "internalType": "uint256",
          "name": "_leaseId",
          "type": "uint256"
        }
      ],
      "name": "cancelLease",
      "outputs": [],
      "stateMutability": "nonpayable",
      "type": "function"
    },
    {
      "inputs": [
        {
          "internalType": "uint256",
          "name": "_tenantId",
          "type": "uint256"
        },
        {
          "internalType": "uint256",
          "name": "_rentAmount",
          "type": "uint256"
        },
        {
          "internalType": "uint8",
          "name": "_totalNumberOfRents",
          "type": "uint8"
        },
        {
          "internalType": "address",
          "name": "_paymentToken",
          "type": "address"
        },
        {
          "internalType": "uint256",
          "name": "_rentPaymentInterval",
          "type": "uint256"
        },
        {
          "internalType": "uint256",
          "name": "_rentPaymentLimitTime",
          "type": "uint256"
        },
        {
          "internalType": "string",
          "name": "_currencyPair",
          "type": "string"
        },
        {
          "internalType": "uint256",
          "name": "_startDate",
          "type": "uint256"
        }
      ],
      "name": "createLease",
      "outputs": [],
      "stateMutability": "nonpayable",
      "type": "function"
    },
    {
      "inputs": [
        {
          "internalType": "uint256",
          "name": "_leaseId",
          "type": "uint256"
        }
      ],
      "name": "declineLease",
      "outputs": [],
      "stateMutability": "nonpayable",
      "type": "function"
    },
    {
      "inputs": [
        {
          "internalType": "uint256",
          "name": "_leaseId",
          "type": "uint256"
        }
      ],
      "name": "getPayments",
      "outputs": [
        {
          "components": [
            {
              "internalType": "uint256",
              "name": "validationDate",
              "type": "uint256"
            },
            {
              "internalType": "bool",
              "name": "withoutIssues",
              "type": "bool"
            },
            {
              "internalType": "int256",
              "name": "exchangeRate",
              "type": "int256"
            },
            {
              "internalType": "uint256",
              "name": "exchangeRateTimestamp",
              "type": "uint256"
            },
            {
              "internalType": "enum Lease.PaymentStatus",
              "name": "paymentStatus",
              "type": "uint8"
            }
          ],
          "internalType": "struct Lease.RentPayment[]",
          "name": "rentPayments",
          "type": "tuple[]"
        }
      ],
      "stateMutability": "view",
      "type": "function"
    },
    {
      "inputs": [
        {
          "internalType": "uint256",
          "name": "",
          "type": "uint256"
        }
      ],
      "name": "leases",
      "outputs": [
        {
          "internalType": "uint256",
          "name": "ownerId",
          "type": "uint256"
        },
        {
          "internalType": "uint256",
          "name": "tenantId",
          "type": "uint256"
        },
        {
          "components": [
            {
              "internalType": "uint256",
              "name": "rentAmount",
              "type": "uint256"
            },
            {
              "internalType": "address",
              "name": "paymentToken",
              "type": "address"
            },
            {
              "internalType": "string",
              "name": "currencyPair",
              "type": "string"
            }
          ],
          "internalType": "struct Lease.PaymentData",
          "name": "paymentData",
          "type": "tuple"
        },
        {
          "internalType": "uint8",
          "name": "totalNumberOfRents",
          "type": "uint8"
        },
        {
          "components": [
            {
              "internalType": "bool",
              "name": "ownerReviewed",
              "type": "bool"
            },
            {
              "internalType": "bool",
              "name": "tenantReviewed",
              "type": "bool"
            },
            {
              "internalType": "string",
              "name": "ownerReviewUri",
              "type": "string"
            },
            {
              "internalType": "string",
              "name": "tenantReviewUri",
              "type": "string"
            }
          ],
          "internalType": "struct Lease.ReviewStatus",
          "name": "reviewStatus",
          "type": "tuple"
        },
        {
          "internalType": "uint256",
          "name": "rentPaymentInterval",
          "type": "uint256"
        },
        {
          "internalType": "uint256",
          "name": "rentPaymentLimitTime",
          "type": "uint256"
        },
        {
          "internalType": "uint256",
          "name": "startDate",
          "type": "uint256"
        },
        {
          "components": [
            {
              "internalType": "bool",
              "name": "cancelledByOwner",
              "type": "bool"
            },
            {
              "internalType": "bool",
              "name": "cancelledByTenant",
              "type": "bool"
            }
          ],
          "internalType": "struct Lease.Cancellation",
          "name": "cancellation",
          "type": "tuple"
        },
        {
          "internalType": "enum Lease.LeaseStatus",
          "name": "status",
          "type": "uint8"
        },
        {
          "internalType": "string",
          "name": "metaData",
          "type": "string"
        }
      ],
      "stateMutability": "view",
      "type": "function"
    },
    {
      "inputs": [
        {
          "internalType": "uint256",
          "name": "_leaseId",
          "type": "uint256"
        },
        {
          "internalType": "uint256",
          "name": "_rentId",
          "type": "uint256"
        }
      ],
      "name": "markRentAsNotPaid",
      "outputs": [],
      "stateMutability": "nonpayable",
      "type": "function"
    },
    {
      "inputs": [
        {
          "internalType": "uint256",
          "name": "_leaseId",
          "type": "uint256"
        },
        {
          "internalType": "uint256",
          "name": "_rentId",
          "type": "uint256"
        }
      ],
      "name": "markRentAsPending",
      "outputs": [],
      "stateMutability": "nonpayable",
      "type": "function"
    },
    {
      "inputs": [
        {
          "internalType": "uint256",
          "name": "_leaseId",
          "type": "uint256"
        },
        {
          "internalType": "uint256",
          "name": "_rentId",
          "type": "uint256"
        },
        {
          "internalType": "bool",
          "name": "_withoutIssues",
          "type": "bool"
        }
      ],
      "name": "payCryptoRentInETH",
      "outputs": [],
      "stateMutability": "payable",
      "type": "function"
    },
    {
      "inputs": [
        {
          "internalType": "uint256",
          "name": "_leaseId",
          "type": "uint256"
        },
        {
          "internalType": "uint256",
          "name": "_rentId",
          "type": "uint256"
        },
        {
          "internalType": "bool",
          "name": "_withoutIssues",
          "type": "bool"
        },
        {
          "internalType": "uint256",
          "name": "_amount",
          "type": "uint256"
        }
      ],
      "name": "payCryptoRentInToken",
      "outputs": [],
      "stateMutability": "nonpayable",
      "type": "function"
    },
    {
      "inputs": [
        {
          "internalType": "uint256",
          "name": "_leaseId",
          "type": "uint256"
        },
        {
          "internalType": "uint256",
          "name": "_rentId",
          "type": "uint256"
        },
        {
          "internalType": "bool",
          "name": "_withoutIssues",
          "type": "bool"
        }
      ],
      "name": "payFiatRentInEth",
      "outputs": [],
      "stateMutability": "payable",
      "type": "function"
    },
    {
      "inputs": [
        {
          "internalType": "uint256",
          "name": "_leaseId",
          "type": "uint256"
        },
        {
          "internalType": "uint256",
          "name": "_rentId",
          "type": "uint256"
        },
        {
          "internalType": "bool",
          "name": "_withoutIssues",
          "type": "bool"
        },
        {
          "internalType": "uint256",
          "name": "_amountInSmallestDecimal",
          "type": "uint256"
        }
      ],
      "name": "payFiatRentInToken",
      "outputs": [],
      "stateMutability": "nonpayable",
      "type": "function"
    },
    {
      "inputs": [
        {
          "internalType": "uint256",
          "name": "_leaseId",
          "type": "uint256"
        },
        {
          "internalType": "string",
          "name": "_reviewUri",
          "type": "string"
        }
      ],
      "name": "reviewLease",
      "outputs": [],
      "stateMutability": "nonpayable",
      "type": "function"
    },
    {
      "inputs": [
        {
          "internalType": "uint256",
          "name": "_leaseId",
          "type": "uint256"
        },
        {
          "internalType": "string",
          "name": "_newCid",
          "type": "string"
        }
      ],
      "name": "updateLeaseMetaData",
      "outputs": [],
      "stateMutability": "nonpayable",
      "type": "function"
    },
    {
      "inputs": [
        {
          "internalType": "uint256",
          "name": "_leaseId",
          "type": "uint256"
        }
      ],
      "name": "validateLease",
      "outputs": [],
      "stateMutability": "nonpayable",
      "type": "function"
    }
  ],
  "bytecode": "0x60806040526001805460ff191660c81790553480156200001e57600080fd5b5060405162003a9d38038062003a9d8339810160408190526200004191620000c1565b6200005860006200009b60201b62002aa51760201c565b600380546001600160a01b039485166001600160a01b0319918216179091556004805493851693821693909317909255600580549190931691161790556200010b565b80546001019055565b80516001600160a01b0381168114620000bc57600080fd5b919050565b600080600060608486031215620000d757600080fd5b620000e284620000a4565b9250620000f260208501620000a4565b91506200010260408501620000a4565b90509250925092565b613982806200011b6000396000f3fe6080604052600436106100e85760003560e01c80637f0f30f21161008a578063b9a046ec11610059578063b9a046ec14610266578063d6616f7514610286578063e588de3a146102a6578063fe365199146102c657600080fd5b80637f0f30f2146101dc5780638927a106146101ef578063a17c188814610226578063b99dba891461024657600080fd5b806362043bd8116100c657806362043bd81461014f5780636b74f10b146101895780636f8050301461019c5780637ca08d4a146101bc57600080fd5b80631d5d7d11146100ed57806325d4308e1461010f5780635531563e1461012f575b600080fd5b3480156100f957600080fd5b5061010d610108366004612ce4565b6102f3565b005b34801561011b57600080fd5b5061010d61012a366004612d17565b6104cf565b34801561013b57600080fd5b5061010d61014a366004612d56565b61088a565b34801561015b57600080fd5b5061016b670de0b6b3a764000081565b60405167ffffffffffffffff90911681526020015b60405180910390f35b61010d610197366004612d6f565b610a8f565b3480156101a857600080fd5b5061010d6101b7366004612e40565b610e03565b3480156101c857600080fd5b5061010d6101d7366004612d56565b610f53565b61010d6101ea366004612d6f565b611120565b3480156101fb57600080fd5b5061020f61020a366004612d56565b61135e565b6040516101809b9a99989796959493929190612f93565b34801561023257600080fd5b5061010d6102413660046130a5565b61167a565b34801561025257600080fd5b5061010d610261366004613106565b6119c1565b34801561027257600080fd5b5061010d610281366004612ce4565b611f18565b34801561029257600080fd5b5061010d6102a1366004612d56565b612157565b3480156102b257600080fd5b5061010d6102c1366004612d17565b6124e7565b3480156102d257600080fd5b506102e66102e1366004612d56565b6129d2565b60405161018091906131a4565b6000828152600260205260408120600e810180549192918490811061031a5761031a613224565b6000918252602090912060035484546040516331a9108f60e11b8152600590940290920193506001600160a01b031691636352211e916103609160040190815260200190565b602060405180830381865afa15801561037d573d6000803e3d6000fd5b505050506040513d601f19601f820116820180604052508101906103a1919061323a565b6001600160a01b0316336001600160a01b0316146103da5760405162461bcd60e51b81526004016103d19061325e565b60405180910390fd5b6000600d83015460ff1660038111156103f5576103f5612f69565b146104125760405162461bcd60e51b81526004016103d1906132a3565b600260048083015460ff169081111561042d5761042d612f69565b1461047a5760405162461bcd60e51b815260206004820152601f60248201527f5061796d656e74206d7573742062652073657420746f204e4f545f504149440060448201526064016103d1565b61048684846000612aae565b61048f84612b14565b60408051858152602081018590527fa311d4dd9b3858335d8f972fd041258d4f5b25c1e0dae947036dff7a327ebc5391015b60405180910390a150505050565b6000848152600260205260409081902060048054600183015493516331a9108f60e11b815291820193909352909133916001600160a01b0390911690636352211e90602401602060405180830381865afa158015610531573d6000803e3d6000fd5b505050506040513d601f19601f82011682018060405250810190610555919061323a565b6001600160a01b03161461057b5760405162461bcd60e51b81526004016103d1906132d0565b600081600e01858154811061059257610592613224565b6000918252602082206005909102019150600d83015460ff1660038111156105bc576105bc612f69565b146105d95760405162461bcd60e51b81526004016103d1906132a3565b8482600901546105e9919061332d565b82600b01546105f8919061334a565b4210156106175760405162461bcd60e51b81526004016103d19061335d565b600060048083015460ff169081111561063257610632612f69565b1461064f5760405162461bcd60e51b81526004016103d190613386565b60038201546040516370a0823160e01b81523360048201526001600160a01b0390911690849082906370a0823190602401602060405180830381865afa15801561069d573d6000803e3d6000fd5b505050506040513d601f19601f820116820180604052508101906106c191906133d6565b101561070a5760405162461bcd60e51b81526020600482015260186024820152774e6f7420656e6f75676820746f6b656e2062616c616e636560401b60448201526064016103d1565b600283015484101561072e5760405162461bcd60e51b81526004016103d1906133ef565b60035483546040516331a9108f60e11b815260048101919091526001600160a01b03838116926323b872dd92339290911690636352211e90602401602060405180830381865afa158015610786573d6000803e3d6000fd5b505050506040513d601f19601f820116820180604052508101906107aa919061323a565b6040516001600160e01b031960e085901b1681526001600160a01b03928316600482015291166024820152604481018790526064016020604051808303816000875af11580156107fe573d6000803e3d6000fd5b505050506040513d601f19601f820116820180604052508101906108229190613419565b506108308787600188612c6a565b61083987612b14565b6040805188815260208101889052861515818301526060810186905290517f9f156b31b6d7fa9704e1ce08eae240657807a5454f6a1722bdd732b8137ca3a99181900360800190a150505050505050565b600081815260026020526040812080549091036108e05760405162461bcd60e51b81526020600482015260146024820152731319585cd948191bd95cc81b9bdd08195e1a5cdd60621b60448201526064016103d1565b6004805460018301546040516331a9108f60e11b8152928301526001600160a01b031690636352211e90602401602060405180830381865afa15801561092a573d6000803e3d6000fd5b505050506040513d601f19601f8201168201806040525081019061094e919061323a565b6001600160a01b0316336001600160a01b03161461097e5760405162461bcd60e51b81526004016103d190613436565b6001600d82015460ff16600381111561099957610999612f69565b146109e65760405162461bcd60e51b815260206004820152601b60248201527f4c656173652077617320616c72656164792076616c696461746564000000000060448201526064016103d1565b6004805460018381015460405163969bd54760e01b81529384015260248301526001600160a01b03169063969bd54790604401600060405180830381600087803b158015610a3357600080fd5b505af1158015610a47573d6000803e3d6000fd5b50505050600d8101805460ff191690556040518281527f09daed58f0a32de24707bef0ce5b435b41fc44d9361c5df577467a58843d3c7b906020015b60405180910390a15050565b60008381526002602052604090819020600554915163036b81d560e21b815290916001600160a01b031690630dae075490610ad090600480860191016134b6565b600060405180830381600087803b158015610aea57600080fd5b505af1158015610afe573d6000803e3d6000fd5b50506004805460018501546040516331a9108f60e11b815292830152600093506001600160a01b03169150636352211e90602401602060405180830381865afa158015610b4f573d6000803e3d6000fd5b505050506040513d601f19601f82011682018060405250810190610b73919061323a565b90506001600160a01b0381163314610b9d5760405162461bcd60e51b81526004016103d1906132d0565b600082600e018581548110610bb457610bb4613224565b6000918252602082206005909102019150600d84015460ff166003811115610bde57610bde612f69565b14610bfb5760405162461bcd60e51b81526004016103d1906132a3565b848360090154610c0b919061332d565b83600b0154610c1a919061334a565b421015610c395760405162461bcd60e51b81526004016103d19061335d565b600060048083015460ff1690811115610c5457610c54612f69565b14610c715760405162461bcd60e51b81526004016103d190613386565b600554604051630d81b5db60e31b815260009182916001600160a01b0390911690636c0daed890610ca8906004808a0191016134b6565b6040805180830381865afa158015610cc4573d6000803e3d6000fd5b505050506040513d601f19601f82011682018060405250810190610ce89190613541565b6002808601839055600386018290558701549193509150600090610d0d90849061332d565b60015490915061271090610d249060ff168361332d565b610d2e9190613565565b610d389082613587565b341015610d575760405162461bcd60e51b81526004016103d1906133ef565b6040516001600160a01b038616903480156108fc02916000818181858888f19350505050158015610d8c573d6000803e3d6000fd5b50610d9a898960018a612c6a565b610da389612b14565b604080518a8152602081018a9052881515818301523460608201526080810185905260a0810184905290517f43de4a3cb1db480811bab43f7a5cb99c70e242076ea2b0736f3c84b163a76dbe9181900360c00190a1505050505050505050565b6000828152600260205260409081902060048054600183015493516331a9108f60e11b81529182019390935290916001600160a01b031690636352211e90602401602060405180830381865afa158015610e61573d6000803e3d6000fd5b505050506040513d601f19601f82011682018060405250810190610e85919061323a565b6001600160a01b0316336001600160a01b031614610eb55760405162461bcd60e51b81526004016103d190613436565b6000825111610f065760405162461bcd60e51b815260206004820152601f60248201527f53686f756c642070726f7669646520612076616c69642049504653205552490060448201526064016103d1565b600f8101610f1483826135e9565b507f4b8571ba3c599c27b0b809fecc20d64cdc3c968443607ed2911be496ff33d18b8383604051610f469291906136a9565b60405180910390a1505050565b6000818152600260205260409081902060048054600183015493516331a9108f60e11b81529182019390935290916001600160a01b031690636352211e90602401602060405180830381865afa158015610fb1573d6000803e3d6000fd5b505050506040513d601f19601f82011682018060405250810190610fd5919061323a565b6001600160a01b0316336001600160a01b03161480611079575060035481546040516331a9108f60e11b81526001600160a01b0390921691636352211e916110239160040190815260200190565b602060405180830381865afa158015611040573d6000803e3d6000fd5b505050506040513d601f19601f82011682018060405250810190611064919061323a565b6001600160a01b0316336001600160a01b0316145b6110dd5760405162461bcd60e51b815260206004820152602f60248201527f4f6e6c79207468652074656e616e74206f72204f776e65722063616e2063616c60448201526e36103a3434b990333ab731ba34b7b760891b60648201526084016103d1565b600d8101805460ff191660039081179091556040517fdb63439c118f1d1f76128d4db22b1d385eb21fdf197e5f27bb3b349b3fba978191610a83918591906136ca565b60008381526002602052604080822060048054600183015493516331a9108f60e11b8152918201939093529092916001600160a01b031690636352211e90602401602060405180830381865afa15801561117e573d6000803e3d6000fd5b505050506040513d601f19601f820116820180604052508101906111a2919061323a565b90506001600160a01b03811633146111cc5760405162461bcd60e51b81526004016103d1906132d0565b600082600e0185815481106111e3576111e3613224565b6000918252602082206005909102019150600d84015460ff16600381111561120d5761120d612f69565b1461122a5760405162461bcd60e51b81526004016103d1906132a3565b84836009015461123a919061332d565b83600b0154611249919061334a565b4210156112685760405162461bcd60e51b81526004016103d19061335d565b600060048083015460ff169081111561128357611283612f69565b146112a05760405162461bcd60e51b81526004016103d190613386565b600283015434146112c35760405162461bcd60e51b81526004016103d1906133ef565b6040516001600160a01b038316903480156108fc02916000818181858888f193505050501580156112f8573d6000803e3d6000fd5b506113068686600187612c6a565b61130f86612b14565b60408051878152602081018790528515158183015234606082015290517f9f156b31b6d7fa9704e1ce08eae240657807a5454f6a1722bdd732b8137ca3a99181900360800190a1505050505050565b6002602081815260009283526040928390208054600182015485516060810187529483018054865260038401546001600160a01b03169486019490945260048301805492969195939492918401916113b59061347c565b80601f01602080910402602001604051908101604052809291908181526020018280546113e19061347c565b801561142e5780601f106114035761010080835404028352916020019161142e565b820191906000526020600020905b81548152906001019060200180831161141157829003601f168201915b5050509190925250505060058201546040805160808101825260068501805460ff818116151584526101009091048116151560208401526007870180549697919095169590949293919291840191906114869061347c565b80601f01602080910402602001604051908101604052809291908181526020018280546114b29061347c565b80156114ff5780601f106114d4576101008083540402835291602001916114ff565b820191906000526020600020905b8154815290600101906020018083116114e257829003601f168201915b505050505081526020016002820180546115189061347c565b80601f01602080910402602001604051908101604052809291908181526020018280546115449061347c565b80156115915780601f1061156657610100808354040283529160200191611591565b820191906000526020600020905b81548152906001019060200180831161157457829003601f168201915b505050919092525050506009820154600a830154600b84015460408051808201909152600c86015460ff80821615158352610100909104811615156020830152600d870154600f880180549798969795969495939491909216929091906115f79061347c565b80601f01602080910402602001604051908101604052809291908181526020018280546116239061347c565b80156116705780601f1061164557610100808354040283529160200191611670565b820191906000526020600020905b81548152906001019060200180831161165357829003601f168201915b505050505090508b565b600083815260026020819052604090912090600d82015460ff1660038111156116a5576116a5612f69565b146116fd5760405162461bcd60e51b815260206004820152602260248201527f4c656173653a204c65617365206973207374696c6c206e6f742066696e697368604482015261195960f21b60648201526084016103d1565b6004805460018301546040516331a9108f60e11b8152928301526001600160a01b031690636352211e90602401602060405180830381865afa158015611747573d6000803e3d6000fd5b505050506040513d601f19601f8201168201806040525081019061176b919061323a565b6001600160a01b03163303611836576006810154610100900460ff16156117d45760405162461bcd60e51b815260206004820152601e60248201527f4c656173653a2054656e616e7420616c7265616479207265766965776564000060448201526064016103d1565b600881016117e38385836136de565b5060068101805461ff0019166101001790556040517fb1da3f3ff6eac58d60d1b070cb3492689e359cff627a6734122e87ab715f0e7d90611829908690869086906137c8565b60405180910390a16119bb565b60035481546040516331a9108f60e11b81526001600160a01b0390921691636352211e9161186a9160040190815260200190565b602060405180830381865afa158015611887573d6000803e3d6000fd5b505050506040513d601f19601f820116820180604052508101906118ab919061323a565b6001600160a01b0316330361196257600681015460ff161561190f5760405162461bcd60e51b815260206004820152601d60248201527f4c656173653a204f776e657220616c726561647920726576696577656400000060448201526064016103d1565b6007810161191e8385836136de565b5060068101805460ff191660011790556040517f71142bb90445786375b9189a6d9e4245797ccde8572f008946b95514842c95ab90611829908690869086906137c8565b60405162461bcd60e51b815260206004820152602860248201527f596f7520617265206e6f7420616c6c6f77656420746f207265766965772074686044820152676973206c6561736560c01b60648201526084016103d1565b50505050565b6003546040516370a0823160e01b81523360048201526001600160a01b03909116906370a0823190602401602060405180830381865afa158015611a09573d6000803e3d6000fd5b505050506040513d601f19601f82011682018060405250810190611a2d91906133d6565b600003611a885760405162461bcd60e51b8152602060048201526024808201527f4f6e6c7920616e206f776e65722063616e2063616c6c20746869732066756e636044820152633a34b7b760e11b60648201526084016103d1565b60035460405163db935d6360e01b81523360048201526001600160a01b039091169063db935d6390602401602060405180830381865afa158015611ad0573d6000803e3d6000fd5b505050506040513d601f19601f82011682018060405250810190611af491906133d6565b600003611b435760405162461bcd60e51b815260206004820152601b60248201527f4c656173653a20596f7520617265206e6f7420616e206f776e6572000000000060448201526064016103d1565b600480546040516355fd83e560e01b81529182018b90526001600160a01b0316906355fd83e590602401600060405180830381865afa158015611b8a573d6000803e3d6000fd5b505050506040513d6000823e601f3d908101601f19168201604052611bb29190810190613827565b51600003611c025760405162461bcd60e51b815260206004820152601c60248201527f4c656173653a2054656e616e7420646f6573206e6f742065786973740000000060448201526064016103d1565b60048054604051630bc4783360e31b81529182018b90526001600160a01b031690635e23c19890602401602060405180830381865afa158015611c49573d6000803e3d6000fd5b505050506040513d601f19601f82011682018060405250810190611c6d9190613419565b15611cc45760405162461bcd60e51b815260206004820152602160248201527f4c656173653a2054656e616e7420616c7265616479206861732061206c6561736044820152606560f81b60648201526084016103d1565b600060026000611cd360005490565b815260208101919091526040908101600020600354915163db935d6360e01b81523360048201529092506001600160a01b039091169063db935d6390602401602060405180830381865afa158015611d2f573d6000803e3d6000fd5b505050506040513d601f19601f82011682018060405250810190611d5391906133d6565b8155600181018a90556002810189905560058101805460ff191660ff8a161790556003810180546001600160a01b0319166001600160a01b03891617905560048101611da08486836136de565b5060098101869055600a8101859055600b8101829055600d8101805460ff1916600117905560005b600582015460ff9081169082161015611eaa5781600e016040518060a0016040528060008152602001600015158152602001600081526020016000815260200160006004811115611e1b57611e1b612f69565b90528154600181810184556000938452602093849020835160059093020191825592820151818401805491151560ff19928316179055604083015160028301556060830151600383015560808301516004808401805495969495929490939290921691908490811115611e9057611e90612f69565b021790555050508080611ea2906138d5565b915050611dc8565b507fba48b60a952f30037c3d88745ba3ca5a531d10546e92e5301b17b6dbc65ffadd611ed560005490565b8254604051611ef692918e918e908e908e908e908e908c908f908f906138f4565b60405180910390a1611f0c600080546001019055565b50505050505050505050565b60008281526002602052604090819020600354815492516331a9108f60e11b815291926001600160a01b0390911691636352211e91611f5d9160040190815260200190565b602060405180830381865afa158015611f7a573d6000803e3d6000fd5b505050506040513d601f19601f82011682018060405250810190611f9e919061323a565b6001600160a01b0316336001600160a01b031614611fce5760405162461bcd60e51b81526004016103d19061325e565b6000600d82015460ff166003811115611fe957611fe9612f69565b146120065760405162461bcd60e51b81526004016103d1906132a3565b8181600a0154612016919061332d565b81600b0154612025919061334a565b42116120735760405162461bcd60e51b815260206004820152601c60248201527f54656e616e74207374696c6c206861732074696d6520746f207061790000000060448201526064016103d1565b600081600e01838154811061208a5761208a613224565b600091825260208220600590910201915060048083015460ff16908111156120b4576120b4612f69565b1461210c5760405162461bcd60e51b815260206004820152602260248201527f5061796d656e7420616c72656164792068617320616e6f746865722073746174604482015261757360f01b60648201526084016103d1565b61211884846002612aae565b61212184612b14565b60408051858152602081018590527f8a48384a753a3a92bbdcacebf90d2d87eea4a405a9cb061c063ee91313fa3fe191016104c1565b600081815260026020526040812090600d82015460ff16600381111561217f5761217f612f69565b1461219c5760405162461bcd60e51b81526004016103d1906132a3565b60035481546040516331a9108f60e11b81526001600160a01b0390921691636352211e916121d09160040190815260200190565b602060405180830381865afa1580156121ed573d6000803e3d6000fd5b505050506040513d601f19601f82011682018060405250810190612211919061323a565b6001600160a01b0316330361228957600c81015460ff16156122755760405162461bcd60e51b815260206004820181905260248201527f4c6561736520616c72656164792063616e63656c6c6564206279206f776e657260448201526064016103d1565b600c8101805460ff191660011790556123e4565b6004805460018301546040516331a9108f60e11b8152928301526001600160a01b031690636352211e90602401602060405180830381865afa1580156122d3573d6000803e3d6000fd5b505050506040513d601f19601f820116820180604052508101906122f7919061323a565b6001600160a01b0316330361238057600c810154610100900460ff161561236a5760405162461bcd60e51b815260206004820152602160248201527f4c6561736520616c72656164792063616e63656c6c65642062792074656e616e6044820152601d60fa1b60648201526084016103d1565b600c8101805461ff0019166101001790556123e4565b60405162461bcd60e51b815260206004820152603360248201527f4f6e6c7920746865206f776e6572206f72207468652074656e616e742063616e6044820152721031b0b636103a3434b990333ab731ba34b7b760691b60648201526084016103d1565b600c8101546040805184815260ff80841615156020830152610100909304909216151582820152517f738d90be22c218d95c6514e34f1295c6dbfe8bf4ad7b28af5894cb05991a6d6b9181900360600190a1600c81015460ff1680156124535750600c810154610100900460ff165b156124e35760005b600582015460ff90811690821610156124d957600082600e018260ff168154811061248857612488613224565b600091825260208220600590910201915060048083015460ff16908111156124b2576124b2612f69565b036124c6576124c6848360ff166003612aae565b50806124d1816138d5565b91505061245b565b506124e382612b14565b5050565b60008481526002602052604090819020600554915163036b81d560e21b815290916001600160a01b031690630dae07549061252890600480860191016134b6565b600060405180830381600087803b15801561254257600080fd5b505af1158015612556573d6000803e3d6000fd5b50506004805460018501546040516331a9108f60e11b8152928301523393506001600160a01b03169150636352211e90602401602060405180830381865afa1580156125a6573d6000803e3d6000fd5b505050506040513d601f19601f820116820180604052508101906125ca919061323a565b6001600160a01b0316146125f05760405162461bcd60e51b81526004016103d1906132d0565b600081600e01858154811061260757612607613224565b6000918252602082206005909102019150600d83015460ff16600381111561263157612631612f69565b1461264e5760405162461bcd60e51b81526004016103d1906132a3565b84826009015461265e919061332d565b82600b015461266d919061334a565b42101561268c5760405162461bcd60e51b81526004016103d19061335d565b600060048083015460ff16908111156126a7576126a7612f69565b146126c45760405162461bcd60e51b81526004016103d190613386565b60038201546040516370a0823160e01b81523360048201526001600160a01b0390911690849082906370a0823190602401602060405180830381865afa158015612712573d6000803e3d6000fd5b505050506040513d601f19601f8201168201806040525081019061273691906133d6565b101561277f5760405162461bcd60e51b81526020600482015260186024820152774e6f7420656e6f75676820746f6b656e2062616c616e636560401b60448201526064016103d1565b600554604051630d81b5db60e31b815260009182916001600160a01b0390911690636c0daed8906127b6906004808a0191016134b6565b6040805180830381865afa1580156127d2573d6000803e3d6000fd5b505050506040513d601f19601f820116820180604052508101906127f69190613541565b600280870183905560038701829055870154919350915060009061281b90849061332d565b600154909150612710906128329060ff168361332d565b61283c9190613565565b6128469082613587565b8710156128655760405162461bcd60e51b81526004016103d1906133ef565b60035486546040516331a9108f60e11b815260048101919091526001600160a01b03868116926323b872dd92339290911690636352211e90602401602060405180830381865afa1580156128bd573d6000803e3d6000fd5b505050506040513d601f19601f820116820180604052508101906128e1919061323a565b6040516001600160e01b031960e085901b1681526001600160a01b03928316600482015291166024820152604481018a90526064016020604051808303816000875af1158015612935573d6000803e3d6000fd5b505050506040513d601f19601f820116820180604052508101906129599190613419565b506129678a8a60018b612c6a565b6129708a612b14565b604080518b8152602081018b905289151581830152606081018990526080810185905260a0810184905290517f43de4a3cb1db480811bab43f7a5cb99c70e242076ea2b0736f3c84b163a76dbe9181900360c00190a150505050505050505050565b6000818152600260209081526040808320600e8101805483518186028101860190945280845260609592949192909184015b82821015612a995760008481526020908190206040805160a0810182526005860290920180548352600181015460ff908116151594840194909452600281015491830191909152600381015460608301526004808201549293919260808501921690811115612a7557612a75612f69565b6004811115612a8657612a86612f69565b8152505081526020019060010190612a04565b50505050915050919050565b80546001019055565b6000838152600260205260408120600e01805484908110612ad157612ad1613224565b90600052602060002090600502019050818160040160006101000a81548160ff02191690836004811115612b0757612b07612f69565b0217905550429055505050565b6000818152600260205260408120905b600582015460ff9081169082161015612bbb57600082600e018260ff1681548110612b5157612b51613224565b600091825260208220600590910201915060048083015460ff1690811115612b7b57612b7b612f69565b1480612b9d575060048181015460ff1681811115612b9b57612b9b612f69565b145b15612ba85750505050565b5080612bb3816138d5565b915050612b24565b50600d8101805460ff1916600217905560048054600183015460405163969bd54760e01b815292830152600060248301526001600160a01b03169063969bd54790604401600060405180830381600087803b158015612c1957600080fd5b505af1158015612c2d573d6000803e3d6000fd5b50505050600d8101546040517fdb63439c118f1d1f76128d4db22b1d385eb21fdf197e5f27bb3b349b3fba978191610a8391859160ff16906136ca565b6000848152600260205260408120600e01805485908110612c8d57612c8d613224565b90600052602060002090600502019050828160040160006101000a81548160ff02191690836004811115612cc357612cc3612f69565b021790555060018101805460ff191692151592909217909155429055505050565b60008060408385031215612cf757600080fd5b50508035926020909101359150565b8015158114612d1457600080fd5b50565b60008060008060808587031215612d2d57600080fd5b84359350602085013592506040850135612d4681612d06565b9396929550929360600135925050565b600060208284031215612d6857600080fd5b5035919050565b600080600060608486031215612d8457600080fd5b83359250602084013591506040840135612d9d81612d06565b809150509250925092565b634e487b7160e01b600052604160045260246000fd5b6040516080810167ffffffffffffffff81118282101715612de157612de1612da8565b60405290565b604051601f8201601f1916810167ffffffffffffffff81118282101715612e1057612e10612da8565b604052919050565b600067ffffffffffffffff821115612e3257612e32612da8565b50601f01601f191660200190565b60008060408385031215612e5357600080fd5b82359150602083013567ffffffffffffffff811115612e7157600080fd5b8301601f81018513612e8257600080fd5b8035612e95612e9082612e18565b612de7565b818152866020838501011115612eaa57600080fd5b816020840160208301376000602083830101528093505050509250929050565b60005b83811015612ee5578181015183820152602001612ecd565b50506000910152565b60008151808452612f06816020860160208601612eca565b601f01601f19169290920160200192915050565b8051151582526020810151151560208301526000604082015160806040850152612f476080850182612eee565b905060608301518482036060860152612f608282612eee565b95945050505050565b634e487b7160e01b600052602160045260246000fd5b60048110612f8f57612f8f612f69565b9052565b60006101808d83528c60208401528060408401528b51818401525060018060a01b0360208c0151166101a083015260408b015160606101c0840152612fdc6101e0840182612eee565b60ff8c16606085015290508281036080840152612ff9818b612f1a565b90508860a08401528760c08401528660e08401526130296101008401878051151582526020908101511515910152565b613037610140840186612f7f565b82810361016084015261304a8185612eee565b9e9d5050505050505050505050505050565b60008083601f84011261306e57600080fd5b50813567ffffffffffffffff81111561308657600080fd5b60208301915083602082850101111561309e57600080fd5b9250929050565b6000806000604084860312156130ba57600080fd5b83359250602084013567ffffffffffffffff8111156130d857600080fd5b6130e48682870161305c565b9497909650939450505050565b6001600160a01b0381168114612d1457600080fd5b60008060008060008060008060006101008a8c03121561312557600080fd5b8935985060208a0135975060408a013560ff8116811461314457600080fd5b965060608a0135613154816130f1565b955060808a0135945060a08a0135935060c08a013567ffffffffffffffff81111561317e57600080fd5b61318a8c828d0161305c565b9a9d999c50979a9699959894979660e00135949350505050565b602080825282518282018190526000919060409081850190868401855b828110156132175781518051855286810151151587860152858101518686015260608082015190860152608090810151906005821061320257613202612f69565b85015260a090930192908501906001016131c1565b5091979650505050505050565b634e487b7160e01b600052603260045260246000fd5b60006020828403121561324c57600080fd5b8151613257816130f1565b9392505050565b60208082526025908201527f4f6e6c7920746865206f776e65722063616e2063616c6c20746869732066756e60408201526431ba34b7b760d91b606082015260800190565b6020808252601390820152724c65617365206973206e6f742041637469766560681b604082015260600190565b60208082526027908201527f4f6e6c79207468652074656e616e742063616e20706572666f726d20746869736040820152661030b1ba34b7b760c91b606082015260800190565b634e487b7160e01b600052601160045260246000fd5b808202811582820484141761334457613344613317565b92915050565b8082018082111561334457613344613317565b6020808252600f908201526e5061796d656e74206e6f742064756560881b604082015260600190565b60208082526030908201527f5061796d656e74206973206e6f742070656e64696e672c20706c65617365206360408201526f37b73a30b1ba103a34329037bbb732b960811b606082015260800190565b6000602082840312156133e857600080fd5b5051919050565b60208082526010908201526f57726f6e672072656e742076616c756560801b604082015260600190565b60006020828403121561342b57600080fd5b815161325781612d06565b60208082526026908201527f4f6e6c79207468652074656e616e742063616e2063616c6c20746869732066756040820152653731ba34b7b760d11b606082015260800190565b600181811c9082168061349057607f821691505b6020821081036134b057634e487b7160e01b600052602260045260246000fd5b50919050565b60006020808352600084546134ca8161347c565b808487015260406001808416600081146134eb576001811461350557613533565b60ff1985168984015283151560051b890183019550613533565b896000528660002060005b8581101561352b5781548b8201860152908301908801613510565b8a0184019650505b509398975050505050505050565b6000806040838503121561355457600080fd5b505080516020909101519092909150565b60008261358257634e487b7160e01b600052601260045260246000fd5b500490565b8181038181111561334457613344613317565b601f8211156135e457600081815260208120601f850160051c810160208610156135c15750805b601f850160051c820191505b818110156135e0578281556001016135cd565b5050505b505050565b815167ffffffffffffffff81111561360357613603612da8565b61361781613611845461347c565b8461359a565b602080601f83116001811461364c57600084156136345750858301515b600019600386901b1c1916600185901b1785556135e0565b600085815260208120601f198616915b8281101561367b5788860151825594840194600190910190840161365c565b50858210156136995787850151600019600388901b60f8161c191681555b5050505050600190811b01905550565b8281526040602082015260006136c26040830184612eee565b949350505050565b828152604081016132576020830184612f7f565b67ffffffffffffffff8311156136f6576136f6612da8565b61370a83613704835461347c565b8361359a565b6000601f84116001811461373e57600085156137265750838201355b600019600387901b1c1916600186901b178355613798565b600083815260209020601f19861690835b8281101561376f578685013582556020948501946001909201910161374f565b508682101561378c5760001960f88860031b161c19848701351681555b505060018560011b0183555b5050505050565b81835281816020850137506000828201602090810191909152601f909101601f19169091010190565b838152604060208201526000612f6060408301848661379f565b600082601f8301126137f357600080fd5b8151613801612e9082612e18565b81815284602083860101111561381657600080fd5b6136c2826020830160208701612eca565b60006020828403121561383957600080fd5b815167ffffffffffffffff8082111561385157600080fd5b908301906080828603121561386557600080fd5b61386d612dbe565b8251815260208301518281111561388357600080fd5b61388f878286016137e2565b60208301525060408301516138a381612d06565b60408201526060830151828111156138ba57600080fd5b6138c6878286016137e2565b60608301525095945050505050565b600060ff821660ff81036138eb576138eb613317565b60010192915050565b60006101408d83528c60208401528b60408401528a606084015260ff8a16608084015260018060a01b03891660a08401528760c08401528660e0840152856101008401528061012084015261304a818401858761379f56fea26469706673582212204e6e971b5d1b824616cbd8aeca5e7760d149f5d587ef66d779e816b1c960489b64736f6c63430008110033",
  "linkReferences": {},
  "deployedLinkReferences": {}
}