{
  "_format": "hh-sol-artifact-1",
  "contractName": "OwnerId",
  "sourceName": "contracts/OwnerId.sol",
  "abi": [
    {
      "inputs": [],
      "stateMutability": "nonpayable",
      "type": "constructor"
    },
    {
      "inputs": [],
      "name": "ApprovalCallerNotOwnerNorApproved",
      "type": "error"
    },
    {
      "inputs": [],
      "name": "ApprovalQueryForNonexistentToken",
      "type": "error"
    },
    {
      "inputs": [],
      "name": "BalanceQueryForZeroAddress",
      "type": "error"
    },
    {
      "inputs": [],
      "name": "MintERC2309QuantityExceedsLimit",
      "type": "error"
    },
    {
      "inputs": [],
      "name": "MintToZeroAddress",
      "type": "error"
    },
    {
      "inputs": [],
      "name": "MintZeroQuantity",
      "type": "error"
    },
    {
      "inputs": [],
      "name": "OwnerQueryForNonexistentToken",
      "type": "error"
    },
    {
      "inputs": [],
      "name": "OwnershipNotInitializedForExtraData",
      "type": "error"
    },
    {
      "inputs": [],
      "name": "TransferCallerNotOwnerNorApproved",
      "type": "error"
    },
    {
      "inputs": [],
      "name": "TransferFromIncorrectOwner",
      "type": "error"
    },
    {
      "inputs": [],
      "name": "TransferToNonERC721ReceiverImplementer",
      "type": "error"
    },
    {
      "inputs": [],
      "name": "TransferToZeroAddress",
      "type": "error"
    },
    {
      "inputs": [],
      "name": "URIQueryForNonexistentToken",
      "type": "error"
    },
    {
      "anonymous": false,
      "inputs": [
        {
          "indexed": true,
          "internalType": "address",
          "name": "owner",
          "type": "address"
        },
        {
          "indexed": true,
          "internalType": "address",
          "name": "approved",
          "type": "address"
        },
        {
          "indexed": true,
          "internalType": "uint256",
          "name": "tokenId",
          "type": "uint256"
        }
      ],
      "name": "Approval",
      "type": "event"
    },
    {
      "anonymous": false,
      "inputs": [
        {
          "indexed": true,
          "internalType": "address",
          "name": "owner",
          "type": "address"
        },
        {
          "indexed": true,
          "internalType": "address",
          "name": "operator",
          "type": "address"
        },
        {
          "indexed": false,
          "internalType": "bool",
          "name": "approved",
          "type": "bool"
        }
      ],
      "name": "ApprovalForAll",
      "type": "event"
    },
    {
      "anonymous": false,
      "inputs": [
        {
          "indexed": true,
          "internalType": "uint256",
          "name": "_tokenId",
          "type": "uint256"
        },
        {
          "indexed": false,
          "internalType": "string",
          "name": "_newCid",
          "type": "string"
        }
      ],
      "name": "CidUpdated",
      "type": "event"
    },
    {
      "anonymous": false,
      "inputs": [
        {
          "indexed": true,
          "internalType": "uint256",
          "name": "fromTokenId",
          "type": "uint256"
        },
        {
          "indexed": false,
          "internalType": "uint256",
          "name": "toTokenId",
          "type": "uint256"
        },
        {
          "indexed": true,
          "internalType": "address",
          "name": "from",
          "type": "address"
        },
        {
          "indexed": true,
          "internalType": "address",
          "name": "to",
          "type": "address"
        }
      ],
      "name": "ConsecutiveTransfer",
      "type": "event"
    },
    {
      "anonymous": false,
      "inputs": [
        {
          "indexed": true,
          "internalType": "address",
          "name": "_ownerAddress",
          "type": "address"
        },
        {
          "indexed": false,
          "internalType": "uint256",
          "name": "_tokenId",
          "type": "uint256"
        },
        {
          "indexed": false,
          "internalType": "string",
          "name": "_ownerName",
          "type": "string"
        }
      ],
      "name": "Mint",
      "type": "event"
    },
    {
      "anonymous": false,
      "inputs": [
        {
          "indexed": true,
          "internalType": "address",
          "name": "owner",
          "type": "address"
        },
        {
          "indexed": true,
          "internalType": "address",
          "name": "approved",
          "type": "address"
        },
        {
          "indexed": true,
          "internalType": "uint256",
          "name": "tokenId",
          "type": "uint256"
        }
      ],
      "name": "RevokeApproval",
      "type": "event"
    },
    {
      "anonymous": false,
      "inputs": [
        {
          "indexed": true,
          "internalType": "bytes32",
          "name": "role",
          "type": "bytes32"
        },
        {
          "indexed": true,
          "internalType": "bytes32",
          "name": "previousAdminRole",
          "type": "bytes32"
        },
        {
          "indexed": true,
          "internalType": "bytes32",
          "name": "newAdminRole",
          "type": "bytes32"
        }
      ],
      "name": "RoleAdminChanged",
      "type": "event"
    },
    {
      "anonymous": false,
      "inputs": [
        {
          "indexed": true,
          "internalType": "bytes32",
          "name": "role",
          "type": "bytes32"
        },
        {
          "indexed": true,
          "internalType": "address",
          "name": "account",
          "type": "address"
        },
        {
          "indexed": true,
          "internalType": "address",
          "name": "sender",
          "type": "address"
        }
      ],
      "name": "RoleGranted",
      "type": "event"
    },
    {
      "anonymous": false,
      "inputs": [
        {
          "indexed": true,
          "internalType": "bytes32",
          "name": "role",
          "type": "bytes32"
        },
        {
          "indexed": true,
          "internalType": "address",
          "name": "account",
          "type": "address"
        },
        {
          "indexed": true,
          "internalType": "address",
          "name": "sender",
          "type": "address"
        }
      ],
      "name": "RoleRevoked",
      "type": "event"
    },
    {
      "anonymous": false,
      "inputs": [
        {
          "indexed": true,
          "internalType": "address",
          "name": "from",
          "type": "address"
        },
        {
          "indexed": true,
          "internalType": "address",
          "name": "to",
          "type": "address"
        },
        {
          "indexed": true,
          "internalType": "uint256",
          "name": "tokenId",
          "type": "uint256"
        }
      ],
      "name": "Transfer",
      "type": "event"
    },
    {
      "inputs": [],
      "name": "DEFAULT_ADMIN_ROLE",
      "outputs": [
        {
          "internalType": "bytes32",
          "name": "",
          "type": "bytes32"
        }
      ],
      "stateMutability": "view",
      "type": "function"
    },
    {
      "inputs": [],
      "name": "MINT_ROLE",
      "outputs": [
        {
          "internalType": "bytes32",
          "name": "",
          "type": "bytes32"
        }
      ],
      "stateMutability": "view",
      "type": "function"
    },
    {
      "inputs": [
        {
          "internalType": "address",
          "name": "to",
          "type": "address"
        },
        {
          "internalType": "uint256",
          "name": "tokenId",
          "type": "uint256"
        }
      ],
      "name": "approve",
      "outputs": [],
      "stateMutability": "payable",
      "type": "function"
    },
    {
      "inputs": [
        {
          "internalType": "address",
          "name": "owner",
          "type": "address"
        }
      ],
      "name": "balanceOf",
      "outputs": [
        {
          "internalType": "uint256",
          "name": "",
          "type": "uint256"
        }
      ],
      "stateMutability": "view",
      "type": "function"
    },
    {
      "inputs": [
        {
          "internalType": "uint256",
          "name": "tokenId",
          "type": "uint256"
        }
      ],
      "name": "getApproved",
      "outputs": [
        {
          "internalType": "address",
          "name": "",
          "type": "address"
        }
      ],
      "stateMutability": "view",
      "type": "function"
    },
    {
      "inputs": [
        {
          "internalType": "address",
          "name": "_owner",
          "type": "address"
        }
      ],
      "name": "getOwnerIdFromAddress",
      "outputs": [
        {
          "internalType": "uint256",
          "name": "",
          "type": "uint256"
        }
      ],
      "stateMutability": "view",
      "type": "function"
    },
    {
      "inputs": [
        {
          "internalType": "bytes32",
          "name": "role",
          "type": "bytes32"
        }
      ],
      "name": "getRoleAdmin",
      "outputs": [
        {
          "internalType": "bytes32",
          "name": "",
          "type": "bytes32"
        }
      ],
      "stateMutability": "view",
      "type": "function"
    },
    {
      "inputs": [
        {
          "internalType": "bytes32",
          "name": "role",
          "type": "bytes32"
        },
        {
          "internalType": "address",
          "name": "account",
          "type": "address"
        }
      ],
      "name": "grantRole",
      "outputs": [],
      "stateMutability": "nonpayable",
      "type": "function"
    },
    {
      "inputs": [
        {
          "internalType": "bytes32",
          "name": "role",
          "type": "bytes32"
        },
        {
          "internalType": "address",
          "name": "account",
          "type": "address"
        }
      ],
      "name": "hasRole",
      "outputs": [
        {
          "internalType": "bool",
          "name": "",
          "type": "bool"
        }
      ],
      "stateMutability": "view",
      "type": "function"
    },
    {
      "inputs": [
        {
          "internalType": "address",
          "name": "owner",
          "type": "address"
        },
        {
          "internalType": "address",
          "name": "operator",
          "type": "address"
        }
      ],
      "name": "isApprovedForAll",
      "outputs": [
        {
          "internalType": "bool",
          "name": "",
          "type": "bool"
        }
      ],
      "stateMutability": "view",
      "type": "function"
    },
    {
      "inputs": [
        {
          "internalType": "uint256",
          "name": "_ownerId",
          "type": "uint256"
        }
      ],
      "name": "isValid",
      "outputs": [],
      "stateMutability": "view",
      "type": "function"
    },
    {
      "inputs": [
        {
          "internalType": "string",
          "name": "_ownerName",
          "type": "string"
        }
      ],
      "name": "mint",
      "outputs": [],
      "stateMutability": "nonpayable",
      "type": "function"
    },
    {
      "inputs": [],
      "name": "name",
      "outputs": [
        {
          "internalType": "string",
          "name": "",
          "type": "string"
        }
      ],
      "stateMutability": "view",
      "type": "function"
    },
    {
      "inputs": [
        {
          "internalType": "address",
          "name": "_ownerAddress",
          "type": "address"
        }
      ],
      "name": "numberMinted",
      "outputs": [
        {
          "internalType": "uint256",
          "name": "",
          "type": "uint256"
        }
      ],
      "stateMutability": "view",
      "type": "function"
    },
    {
      "inputs": [
        {
          "internalType": "uint256",
          "name": "tokenId",
          "type": "uint256"
        }
      ],
      "name": "ownerOf",
      "outputs": [
        {
          "internalType": "address",
          "name": "",
          "type": "address"
        }
      ],
      "stateMutability": "view",
      "type": "function"
    },
    {
      "inputs": [
        {
          "internalType": "uint256",
          "name": "",
          "type": "uint256"
        }
      ],
      "name": "owners",
      "outputs": [
        {
          "internalType": "uint256",
          "name": "id",
          "type": "uint256"
        },
        {
          "internalType": "string",
          "name": "name",
          "type": "string"
        },
        {
          "internalType": "string",
          "name": "dataUri",
          "type": "string"
        }
      ],
      "stateMutability": "view",
      "type": "function"
    },
    {
      "inputs": [
        {
          "internalType": "bytes32",
          "name": "role",
          "type": "bytes32"
        },
        {
          "internalType": "address",
          "name": "account",
          "type": "address"
        }
      ],
      "name": "renounceRole",
      "outputs": [],
      "stateMutability": "nonpayable",
      "type": "function"
    },
    {
      "inputs": [
        {
          "internalType": "address",
          "name": "to",
          "type": "address"
        },
        {
          "internalType": "uint256",
          "name": "tokenId",
          "type": "uint256"
        }
      ],
      "name": "revoke",
      "outputs": [],
      "stateMutability": "payable",
      "type": "function"
    },
    {
      "inputs": [
        {
          "internalType": "bytes32",
          "name": "role",
          "type": "bytes32"
        },
        {
          "internalType": "address",
          "name": "account",
          "type": "address"
        }
      ],
      "name": "revokeRole",
      "outputs": [],
      "stateMutability": "nonpayable",
      "type": "function"
    },
    {
      "inputs": [
        {
          "internalType": "address",
          "name": "from",
          "type": "address"
        },
        {
          "internalType": "address",
          "name": "to",
          "type": "address"
        },
        {
          "internalType": "uint256",
          "name": "tokenId",
          "type": "uint256"
        }
      ],
      "name": "safeTransferFrom",
      "outputs": [],
      "stateMutability": "nonpayable",
      "type": "function"
    },
    {
      "inputs": [
        {
          "internalType": "address",
          "name": "from",
          "type": "address"
        },
        {
          "internalType": "address",
          "name": "to",
          "type": "address"
        },
        {
          "internalType": "uint256",
          "name": "tokenId",
          "type": "uint256"
        },
        {
          "internalType": "bytes",
          "name": "_data",
          "type": "bytes"
        }
      ],
      "name": "safeTransferFrom",
      "outputs": [],
      "stateMutability": "nonpayable",
      "type": "function"
    },
    {
      "inputs": [
        {
          "internalType": "address",
          "name": "operator",
          "type": "address"
        },
        {
          "internalType": "bool",
          "name": "approved",
          "type": "bool"
        }
      ],
      "name": "setApprovalForAll",
      "outputs": [],
      "stateMutability": "nonpayable",
      "type": "function"
    },
    {
      "inputs": [
        {
          "internalType": "bytes4",
          "name": "interfaceId",
          "type": "bytes4"
        }
      ],
      "name": "supportsInterface",
      "outputs": [
        {
          "internalType": "bool",
          "name": "",
          "type": "bool"
        }
      ],
      "stateMutability": "view",
      "type": "function"
    },
    {
      "inputs": [],
      "name": "symbol",
      "outputs": [
        {
          "internalType": "string",
          "name": "",
          "type": "string"
        }
      ],
      "stateMutability": "view",
      "type": "function"
    },
    {
      "inputs": [
        {
          "internalType": "string",
          "name": "",
          "type": "string"
        }
      ],
      "name": "takenNames",
      "outputs": [
        {
          "internalType": "bool",
          "name": "",
          "type": "bool"
        }
      ],
      "stateMutability": "view",
      "type": "function"
    },
    {
      "inputs": [
        {
          "internalType": "uint256",
          "name": "tokenId",
          "type": "uint256"
        }
      ],
      "name": "tokenURI",
      "outputs": [
        {
          "internalType": "string",
          "name": "",
          "type": "string"
        }
      ],
      "stateMutability": "view",
      "type": "function"
    },
    {
      "inputs": [],
      "name": "totalSupply",
      "outputs": [
        {
          "internalType": "uint256",
          "name": "",
          "type": "uint256"
        }
      ],
      "stateMutability": "view",
      "type": "function"
    },
    {
      "inputs": [
        {
          "internalType": "address",
          "name": "from",
          "type": "address"
        },
        {
          "internalType": "address",
          "name": "to",
          "type": "address"
        },
        {
          "internalType": "uint256",
          "name": "tokenId",
          "type": "uint256"
        }
      ],
      "name": "transferFrom",
      "outputs": [],
      "stateMutability": "nonpayable",
      "type": "function"
    },
    {
      "inputs": [
        {
          "internalType": "uint256",
          "name": "_ownerId",
          "type": "uint256"
        },
        {
          "internalType": "string",
          "name": "_newCid",
          "type": "string"
        }
      ],
      "name": "updateProfileData",
      "outputs": [],
      "stateMutability": "nonpayable",
      "type": "function"
    }
  ],
  "bytecode": "0x60806040523480156200001157600080fd5b506040518060400160405280600781526020016613dddb995c925960ca1b815250604051806040016040528060048152602001631513d25160e21b8152508160029081620000609190620001e4565b5060036200006f8282620001e4565b505060016000908155620000859150336200008b565b620002b0565b6200009782826200009b565b5050565b60008281526008602090815260408083206001600160a01b038516845290915290205460ff16620000975760008281526008602090815260408083206001600160a01b03851684529091529020805460ff19166001179055620000fb3390565b6001600160a01b0316816001600160a01b0316837f2f8788117e7eff1d82e926ec794901d17c78024a50270940304540a733656f0d60405160405180910390a45050565b634e487b7160e01b600052604160045260246000fd5b600181811c908216806200016a57607f821691505b6020821081036200018b57634e487b7160e01b600052602260045260246000fd5b50919050565b601f821115620001df57600081815260208120601f850160051c81016020861015620001ba5750805b601f850160051c820191505b81811015620001db57828155600101620001c6565b5050505b505050565b81516001600160401b038111156200020057620002006200013f565b620002188162000211845462000155565b8462000191565b602080601f831160018114620002505760008415620002375750858301515b600019600386901b1c1916600185901b178555620001db565b600085815260208120601f198616915b82811015620002815788860151825594840194600190910190840162000260565b5085821015620002a05787850151600019600388901b60f8161c191681555b5050505050600190811b01905550565b6139b880620002c06000396000f3fe6080604052600436106101c25760003560e01c806395d89b41116100f7578063d85d3d2711610095578063e9a9c85011610064578063e9a9c8501461053f578063eac449d914610573578063f160068f14610586578063f577a500146105a657600080fd5b8063d85d3d2714610496578063db935d63146104b6578063dc33e681146104d6578063e985e9c5146104f657600080fd5b8063a383c692116100d1578063a383c692146103fb578063b88d4fde14610436578063c87b56dd14610456578063d547741f1461047657600080fd5b806395d89b41146103b1578063a217fddf146103c6578063a22cb465146103db57600080fd5b8063248a9ca31161016457806342842e0e1161013e57806342842e0e146102c15780636352211e1461035157806370a082311461037157806391d148541461039157600080fd5b8063248a9ca3146102e15780632f2ff15d1461031157806336568abe1461033157600080fd5b8063081812fc116101a0578063081812fc1461024d578063095ea7b31461028557806318160ddd1461029a57806323b872dd146102c157600080fd5b806301ffc9a7146101c7578063025e7c27146101fc57806306fdde031461022b575b600080fd5b3480156101d357600080fd5b506101e76101e23660046118d8565b6105c6565b60405190151581526020015b60405180910390f35b34801561020857600080fd5b5061021c6102173660046118f5565b6105e6565b6040516101f39392919061195e565b34801561023757600080fd5b50610240610719565b6040516101f39190611993565b34801561025957600080fd5b5061026d6102683660046118f5565b6107ab565b6040516001600160a01b0390911681526020016101f3565b6102986102933660046119c2565b6107ef565b005b3480156102a657600080fd5b5060015460005403600019015b6040519081526020016101f3565b3480156102cd57600080fd5b506102986102dc3660046119ec565b61088f565b3480156102ed57600080fd5b506102b36102fc3660046118f5565b60009081526008602052604090206001015490565b34801561031d57600080fd5b5061029861032c366004611a28565b6108ca565b34801561033d57600080fd5b5061029861034c366004611a28565b6108f4565b34801561035d57600080fd5b5061026d61036c3660046118f5565b610972565b34801561037d57600080fd5b506102b361038c366004611a54565b61097d565b34801561039d57600080fd5b506101e76103ac366004611a28565b6109cc565b3480156103bd57600080fd5b506102406109f7565b3480156103d257600080fd5b506102b3600081565b3480156103e757600080fd5b506102986103f6366004611a6f565b610a06565b34801561040757600080fd5b506101e7610416366004611b57565b805160208183018101805160098252928201919093012091525460ff1681565b34801561044257600080fd5b50610298610451366004611b8c565b610a72565b34801561046257600080fd5b506102406104713660046118f5565b610abc565b34801561048257600080fd5b50610298610491366004611a28565b610ac7565b3480156104a257600080fd5b506102986104b1366004611b57565b610aec565b3480156104c257600080fd5b506102b36104d1366004611a54565b610c3a565b3480156104e257600080fd5b506102b36104f1366004611a54565b610cc2565b34801561050257600080fd5b506101e7610511366004611c08565b6001600160a01b03918216600090815260076020908152604080832093909416825291909152205460ff1690565b34801561054b57600080fd5b506102b37f154c00819833dac601ee5ddded6fda79d9d8b506b911b3dbd54cdb95fe6c368681565b6102986105813660046119c2565b610ccd565b34801561059257600080fd5b506102986105a1366004611c32565b610d69565b3480156105b257600080fd5b506102986105c13660046118f5565b610e2f565b60006105d182610e8f565b806105e057506105e082610edd565b92915050565b600a602052600090815260409020805460018201805491929161060890611c79565b80601f016020809104026020016040519081016040528092919081815260200182805461063490611c79565b80156106815780601f1061065657610100808354040283529160200191610681565b820191906000526020600020905b81548152906001019060200180831161066457829003601f168201915b50505050509080600201805461069690611c79565b80601f01602080910402602001604051908101604052809291908181526020018280546106c290611c79565b801561070f5780601f106106e45761010080835404028352916020019161070f565b820191906000526020600020905b8154815290600101906020018083116106f257829003601f168201915b5050505050905083565b60606002805461072890611c79565b80601f016020809104026020016040519081016040528092919081815260200182805461075490611c79565b80156107a15780601f10610776576101008083540402835291602001916107a1565b820191906000526020600020905b81548152906001019060200180831161078457829003601f168201915b5050505050905090565b60006107b682610f12565b6107d3576040516333d1c03960e21b815260040160405180910390fd5b506000908152600660205260409020546001600160a01b031690565b60006107fa82610972565b9050336001600160a01b03821614610833576108168133610511565b610833576040516367d9dca160e11b815260040160405180910390fd5b60008281526006602052604080822080546001600160a01b0319166001600160a01b0387811691821790925591518593918516917f8c5be1e5ebec7d5bd14f71427d1e84f3dd0314c0f7b2291e5b200ac8c7c3b92591a4505050565b60405162461bcd60e51b815260206004820152600b60248201526a139bdd08185b1b1bddd95960aa1b60448201526064015b60405180910390fd5b6000828152600860205260409020600101546108e581610f47565b6108ef8383610f51565b505050565b6001600160a01b03811633146109645760405162461bcd60e51b815260206004820152602f60248201527f416363657373436f6e74726f6c3a2063616e206f6e6c792072656e6f756e636560448201526e103937b632b9903337b91039b2b63360891b60648201526084016108c1565b61096e8282610fd7565b5050565b60006105e08261103e565b60006001600160a01b0382166109a6576040516323d3ad8160e21b815260040160405180910390fd5b506001600160a01b031660009081526005602052604090205467ffffffffffffffff1690565b60009182526008602090815260408084206001600160a01b0393909316845291905290205460ff1690565b60606003805461072890611c79565b3360008181526007602090815260408083206001600160a01b03871680855290835292819020805460ff191686151590811790915590519081529192917f17307eab39ab6107e8899845ad3d59bd9653f200f220920489ca2b5937696c31910160405180910390a35050565b610a7d84848461088f565b6001600160a01b0383163b15610ab657610a99848484846110b4565b610ab6576040516368d2bf6b60e11b815260040160405180910390fd5b50505050565b60606105e0826111a0565b600082815260086020526040902060010154610ae281610f47565b6108ef8383610fd7565b80610af633610cc2565b15610b3c5760405162461bcd60e51b8152602060048201526016602482015275165bdd48185b1c9958591e481a185d9948185b88125160521b60448201526064016108c1565b600281511015610b7f5760405162461bcd60e51b815260206004820152600e60248201526d13985b59481d1bdbc81cda1bdc9d60921b60448201526064016108c1565b600a81511115610bc15760405162461bcd60e51b815260206004820152600d60248201526c4e616d6520746f6f206c6f6e6760981b60448201526064016108c1565b600981604051610bd19190611ccf565b9081526040519081900360200190205460ff1615610c265760405162461bcd60e51b81526020600482015260126024820152712730b6b29030b63932b0b23c903a30b5b2b760711b60448201526064016108c1565b610c313360016112ca565b61096e826112e4565b6000806001815b60015460005403600019018211610cb9576000610c5d8361138c565b90508060400151158015610c7a575080516001600160a01b031615155b15610c8457805191505b856001600160a01b0316826001600160a01b031603610ca65782935050610cb9565b82610cb081611d01565b93505050610c41565b50909392505050565b60006105e08261097d565b6000610cd882610972565b9050336001600160a01b03821614610d1157610cf48133610511565b610d11576040516367d9dca160e11b815260040160405180910390fd5b60008281526006602052604080822080546001600160a01b03191690555183916001600160a01b0386811692908516917f389d4d4e38bf9d1e94e920f5b8a2226b5ff18341fe0f2aebaca5db2aeecfee2d91a4505050565b33610d7383610972565b6001600160a01b031614610d8657600080fd5b6000815111610dd75760405162461bcd60e51b815260206004820152601f60248201527f53686f756c642070726f7669646520612076616c69642049504653205552490060448201526064016108c1565b6000828152600a60205260409020600201610df28282611d68565b50817f613807bd6768f626264e7eb664a65ca99a0d930f8fd8a5b868491a592eb57f7282604051610e239190611993565b60405180910390a25050565b600081118015610e49575060015460005403600019018111155b610e8c5760405162461bcd60e51b8152602060048201526014602482015273139bdd0818481d985b1a590813dddb995c88125160621b60448201526064016108c1565b50565b60006301ffc9a760e01b6001600160e01b031983161480610ec057506380ac58cd60e01b6001600160e01b03198316145b806105e05750506001600160e01b031916635b5e139f60e01b1490565b60006001600160e01b03198216637965db0b60e01b14806105e057506301ffc9a760e01b6001600160e01b03198316146105e0565b600081600111158015610f26575060005482105b80156105e0575050600090815260046020526040902054600160e01b161590565b610e8c8133611404565b610f5b82826109cc565b61096e5760008281526008602090815260408083206001600160a01b03851684529091529020805460ff19166001179055610f933390565b6001600160a01b0316816001600160a01b0316837f2f8788117e7eff1d82e926ec794901d17c78024a50270940304540a733656f0d60405160405180910390a45050565b610fe182826109cc565b1561096e5760008281526008602090815260408083206001600160a01b0385168085529252808320805460ff1916905551339285917ff6391f5c32d9c69d2a47ea670b442974b53935d1edc7fd64eb21e047a839171b9190a45050565b6000818060011161109b5760005481101561109b5760008181526004602052604081205490600160e01b82169003611099575b80600003611092575060001901600081815260046020526040902054611071565b9392505050565b505b604051636f96cda160e11b815260040160405180910390fd5b604051630a85bd0160e11b81526000906001600160a01b0385169063150b7a02906110e9903390899088908890600401611e28565b6020604051808303816000875af1925050508015611124575060408051601f3d908101601f1916820190925261112191810190611e5b565b60015b611182573d808015611152576040519150601f19603f3d011682016040523d82523d6000602084013e611157565b606091505b50805160000361117a576040516368d2bf6b60e11b815260040160405180910390fd5b805181602001fd5b6001600160e01b031916630a85bd0160e11b1490505b949350505050565b6000818152600a60205260408120600101805460609291906111c190611c79565b80601f01602080910402602001604051908101604052809291908181526020018280546111ed90611c79565b801561123a5780601f1061120f5761010080835404028352916020019161123a565b820191906000526020600020905b81548152906001019060200180831161121d57829003601f168201915b50505050509050600061126b826040516020016112579190611e78565b604051602081830303815290604052611468565b60405160200161127b9190613717565b60405160208183030381529060405290506112a2828260405160200161125792919061375c565b6040516020016112b291906137e3565b60405160208183030381529060405292505050919050565b61096e8282604051806020016040528060008152506115bb565b600060016112f160005490565b6112fb9190613828565b6000818152600a602052604090209091506001810161131a8482611d68565b50600160098460405161132d9190611ccf565b908152604051908190036020018120805492151560ff199093169290921790915533907f85a66b9141978db9980f7e0ce3b468cebf4f7999f32b23091c5c03e798b1ba7a9061137f908590879061383b565b60405180910390a2505050565b6040805160808101825260008082526020820181905291810182905260608101919091526105e06113bc8361103e565b604080516080810182526001600160a01b038316815260a083901c67ffffffffffffffff166020820152600160e01b831615159181019190915260e89190911c606082015290565b61140e82826109cc565b61096e57611426816001600160a01b03166014611628565b611431836020611628565b604051602001611442929190613854565b60408051601f198184030181529082905262461bcd60e51b82526108c191600401611993565b6060815160000361148757505060408051602081019091526000815290565b600060405180606001604052806040815260200161394360409139905060006003845160026114b691906138c9565b6114c091906138dc565b6114cb9060046138fe565b67ffffffffffffffff8111156114e3576114e3611aab565b6040519080825280601f01601f19166020018201604052801561150d576020820181803683370190505b509050600182016020820185865187015b80821015611579576003820191508151603f8160121c168501518453600184019350603f81600c1c168501518453600184019350603f8160061c168501518453600184019350603f811685015184535060018301925061151e565b505060038651066001811461159557600281146115a8576115b0565b603d6001830353603d60028303536115b0565b603d60018303535b509195945050505050565b6115c583836117c4565b6001600160a01b0383163b156108ef576000548281035b6115ef60008683806001019450866110b4565b61160c576040516368d2bf6b60e11b815260040160405180910390fd5b8181106115dc57816000541461162157600080fd5b5050505050565b606060006116378360026138fe565b6116429060026138c9565b67ffffffffffffffff81111561165a5761165a611aab565b6040519080825280601f01601f191660200182016040528015611684576020820181803683370190505b509050600360fc1b8160008151811061169f5761169f613915565b60200101906001600160f81b031916908160001a905350600f60fb1b816001815181106116ce576116ce613915565b60200101906001600160f81b031916908160001a90535060006116f28460026138fe565b6116fd9060016138c9565b90505b6001811115611775576f181899199a1a9b1b9c1cb0b131b232b360811b85600f166010811061173157611731613915565b1a60f81b82828151811061174757611747613915565b60200101906001600160f81b031916908160001a90535060049490941c9361176e8161392b565b9050611700565b5083156110925760405162461bcd60e51b815260206004820181905260248201527f537472696e67733a20686578206c656e67746820696e73756666696369656e7460448201526064016108c1565b60008054908290036117e95760405163b562e8dd60e01b815260040160405180910390fd5b6001600160a01b03831660008181526005602090815260408083208054680100000000000000018802019055848352600490915281206001851460e11b4260a01b178317905582840190839083907fddf252ad1be2c89b69c2b068fc378daa952ba7f163c4a11628f55a4df523b3ef8180a4600183015b81811461189857808360007fddf252ad1be2c89b69c2b068fc378daa952ba7f163c4a11628f55a4df523b3ef600080a4600101611860565b50816000036118b957604051622e076360e81b815260040160405180910390fd5b60005550505050565b6001600160e01b031981168114610e8c57600080fd5b6000602082840312156118ea57600080fd5b8135611092816118c2565b60006020828403121561190757600080fd5b5035919050565b60005b83811015611929578181015183820152602001611911565b50506000910152565b6000815180845261194a81602086016020860161190e565b601f01601f19169290920160200192915050565b8381526060602082015260006119776060830185611932565b82810360408401526119898185611932565b9695505050505050565b6020815260006110926020830184611932565b80356001600160a01b03811681146119bd57600080fd5b919050565b600080604083850312156119d557600080fd5b6119de836119a6565b946020939093013593505050565b600080600060608486031215611a0157600080fd5b611a0a846119a6565b9250611a18602085016119a6565b9150604084013590509250925092565b60008060408385031215611a3b57600080fd5b82359150611a4b602084016119a6565b90509250929050565b600060208284031215611a6657600080fd5b611092826119a6565b60008060408385031215611a8257600080fd5b611a8b836119a6565b915060208301358015158114611aa057600080fd5b809150509250929050565b634e487b7160e01b600052604160045260246000fd5b600067ffffffffffffffff80841115611adc57611adc611aab565b604051601f8501601f19908116603f01168101908282118183101715611b0457611b04611aab565b81604052809350858152868686011115611b1d57600080fd5b858560208301376000602087830101525050509392505050565b600082601f830112611b4857600080fd5b61109283833560208501611ac1565b600060208284031215611b6957600080fd5b813567ffffffffffffffff811115611b8057600080fd5b61119884828501611b37565b60008060008060808587031215611ba257600080fd5b611bab856119a6565b9350611bb9602086016119a6565b925060408501359150606085013567ffffffffffffffff811115611bdc57600080fd5b8501601f81018713611bed57600080fd5b611bfc87823560208401611ac1565b91505092959194509250565b60008060408385031215611c1b57600080fd5b611c24836119a6565b9150611a4b602084016119a6565b60008060408385031215611c4557600080fd5b82359150602083013567ffffffffffffffff811115611c6357600080fd5b611c6f85828601611b37565b9150509250929050565b600181811c90821680611c8d57607f821691505b602082108103611cad57634e487b7160e01b600052602260045260246000fd5b50919050565b60008151611cc581856020860161190e565b9290920192915050565b60008251611ce181846020870161190e565b9190910192915050565b634e487b7160e01b600052601160045260246000fd5b600060018201611d1357611d13611ceb565b5060010190565b601f8211156108ef57600081815260208120601f850160051c81016020861015611d415750805b601f850160051c820191505b81811015611d6057828155600101611d4d565b505050505050565b815167ffffffffffffffff811115611d8257611d82611aab565b611d9681611d908454611c79565b84611d1a565b602080601f831160018114611dcb5760008415611db35750858301515b600019600386901b1c1916600185901b178555611d60565b600085815260208120601f198616915b82811015611dfa57888601518255948401946001909101908401611ddb565b5085821015611e185787850151600019600388901b60f8161c191681555b5050505050600190811b01905550565b6001600160a01b038581168252841660208201526040810183905260806060820181905260009061198990830184611932565b600060208284031215611e6d57600080fd5b8151611092816118c2565b7f3c73766720786d6c6e733d22687474703a2f2f7777772e77332e6f72672f323081527f30302f737667222076696577426f783d223020302037323020373230223e3c6460208201527f6566733e3c6c696e6561724772616469656e742069643d2261222078313d223660408201527f372e3934222079313d223136392e3438222078323d223637302e39382220793260608201527f3d223536322e383622206772616469656e74556e6974733d227573657253706160808201527f63654f6e557365223e3c73746f70206f66667365743d2230222073746f702d6360a08201527f6f6c6f723d2223313761396332222f3e3c73746f70206f66667365743d222e3160c08201527f32222073746f702d636f6c6f723d2223316161396263222f3e3c73746f70206f60e08201527f66667365743d222e3239222073746f702d636f6c6f723d2223323561626162226101008201527f2f3e3c73746f70206f66667365743d222e3438222073746f702d636f6c6f723d6101208201527f2223333561643866222f3e3c73746f70206f66667365743d222e3634222073746101408201527f6f702d636f6c6f723d2223343862303732222f3e3c73746f70206f66667365746101608201527f3d222e3738222073746f702d636f6c6f723d2223353962323534222f3e3c73746101808201527f6f70206f66667365743d2231222073746f702d636f6c6f723d222337616237326101a08201527f30222f3e3c2f6c696e6561724772616469656e743e3c2f646566733e3c7061746101c08201527f68207374796c653d2266696c6c3a75726c282361292220643d224d30203068376101e08201527f32307637323048307a222f3e3c7061746820643d224d34372e30352039322e336102008201527f375635332e38344833332e32395634366833362e383576372e38344835362e346102208201527f317633382e3532682d392e33365a6d33352e37312d32332e33342d382e30372d6102408201527f312e3436632e39312d332e323520322e34372d352e363520342e36382d372e326102608201527f3120322e32312d312e353620352e352d322e333420392e38372d322e333420336102808201527f2e3936203020362e39322e343720382e383620312e343120312e39342e3934206102a08201527f332e333120322e313320342e3120332e353773312e313920342e3120312e31396102c08201527f20372e39366c2d2e312031302e3337633020322e39352e313420352e31332e346102e08201527f3320362e35332e323820312e342e383220322e393120312e3620342e3531682d6103008201527f382e3739632d2e32332d2e35392d2e35322d312e34372d2e38352d322e36332d6103208201527f2e31352d2e35332d2e32352d2e38382d2e33322d312e30342d312e353220312e6103408201527f34382d332e313420322e35382d342e383720332e3332732d332e353720312e316103608201527f312d352e353420312e3131632d332e343620302d362e31382d2e39342d382e316103808201527f382d322e38322d312e39392d312e38382d322e39392d342e32352d322e39392d6103a08201527f372e313220302d312e392e34352d332e353920312e33362d352e303873322e316103c08201527f382d322e363320332e38312d332e343220332e39392d312e343820372e30372d6103e08201527f322e303763342e31352d2e373820372e30332d312e353120382e36332d322e316104008201527f38762d2e383963302d312e37312d2e34322d322e39332d312e32372d332e36356104208201527f732d322e34342d312e30392d342e37382d312e3039632d312e353820302d322e6104408201527f38322e33312d332e372e39332d2e38392e36322d312e3620312e37312d322e316104608201527f3520332e32375a6d31312e383920372e3231632d312e31342e33382d322e39346104808201527f2e38332d352e343120312e33362d322e34372e35332d342e303820312e30342d6104a08201527f342e383420312e35352d312e31362e38322d312e373420312e38372d312e37346104c08201527f20332e3133732e343620322e333220312e333920332e3233632e39332e3931206104e08201527f322e313120312e333620332e353420312e333620312e36203020332e31332d2e6105008201527f353320342e35392d312e353820312e30382d2e3820312e37382d312e373820326105208201527f2e31322d322e39342e32332d2e37362e33352d322e322e33352d342e3333762d6105408201527f312e37375a6d31372e34392031362e313356343668382e38397634362e3337686105608201527f2d382e38395a6d33372e34352d31302e363920382e383620312e3439632d312e6105808201527f313420332e32352d322e393420352e37322d352e333920372e3432732d352e356105a08201527f3320322e35352d392e323220322e3535632d352e383420302d31302e31362d316105c08201527f2e39312d31322e39372d352e37322d322e32312d332e30362d332e33322d362e6105e08201527f39322d332e33322d31312e353820302d352e353720312e34362d392e393320346106008201527f2e33362d31332e303820322e39312d332e313520362e35392d342e37332031316106208201527f2e30342d342e37332035203020382e393420312e36352031312e383320342e396106408201527f3573342e323720382e333620342e31342031352e3137682d32322e3237632e306106608201527f3620322e36342e373820342e363920322e313520362e313520312e333720312e6106808201527f343720332e303820322e3220352e313220322e3220312e3339203020322e35366106a08201527f2d2e333820332e35312d312e31342e39352d2e373620312e36372d312e3938206106c08201527f322e31352d332e36375a6d2e35312d382e3938632d2e30362d322e35372d2e376106e08201527f332d342e35332d312e39392d352e38372d312e32372d312e33342d322e38312d6107008201527f322e30312d342e36322d322e30312d312e393420302d332e35342e37312d342e6107208201527f383120322e31322d312e323720312e34312d312e383920332e33332d312e38376107408201527f20352e37366831332e32385a6d34362e36322031392e3637682d382e383956376107608201527f352e323363302d332e36332d2e31392d352e39372d2e35372d372e30342d2e336107808201527f382d312e30362d312d312e38392d312e38352d322e3438732d312e38382d2e386107a08201527f392d332e30382d2e3839632d312e353420302d322e39322e34322d342e3134206107c08201527f312e3237732d322e303620312e39362d322e353120332e3335632d2e343520316107e08201527f2e33392d2e363820332e39362d2e363820372e37327631352e3231682d382e386108008201527f395635382e373868382e323676342e393363322e39332d332e3820362e36322d6108208201527f352e36392031312e30372d352e363920312e3936203020332e37352e333520356108408201527f2e333820312e303620312e36322e373120322e383520312e363120332e3638206108608201527f322e372e383320312e3120312e343120322e333420312e373420332e3733732e6108808201527f343920332e33382e343920352e39387632302e38385a6d32342e34322d33332e6108a08201527f353976372e3038682d362e30375637392e34633020322e37342e303620342e336108c08201527f342e313720342e37392e31322e34352e33382e38332e373920312e31322e34316108e08201527f2e332e39312e343420312e352e34342e3832203020322e30312d2e323820332e6109008201527f35372d2e38356c2e373620362e39632d322e30372e38392d342e343120312e336109208201527f332d372e303220312e33332d312e3620302d332e30352d2e32372d342e33332d6109408201527f2e38312d312e32392d2e35342d322e32332d312e32332d322e38332d322e30396109608201527f2d2e362d2e38352d312e30322d322e30312d312e32352d332e34362d2e31392d6109808201527f312e30332d2e32382d332e31322d2e32382d362e32365636352e3836682d342e6109a08201527f3038762d372e303868342e3038762d362e36376c382e39322d352e31397631316109c08201527f2e383668362e30375a6d362e32362033332e353956343668362e31347634302e6109e08201527f396832322e383476352e3437682d32382e39375a6d35372e34372d342e313463610a008201527f2d322e313120312e37392d342e313420332e30362d362e303920332e382d312e610a208201527f39352e37342d342e303420312e31312d362e323820312e31312d332e36392030610a408201527f2d362e35332d2e392d382e35312d322e372d312e39382d312e382d322e39372d610a608201527f342e31312d322e39372d362e393120302d312e36342e33372d332e313520312e610a808201527f31322d342e353173312e37332d322e343520322e39342d332e323763312e3231610aa08201527f2d2e383220322e35382d312e343420342e312d312e383720312e31322d2e3320610ac08201527f322e382d2e353820352e30362d2e383520342e362d2e353520372e39382d312e610ae08201527f322031302e31352d312e39362e30322d2e37382e30332d312e32382e30332d31610b008201527f2e343920302d322e33322d2e35342d332e39352d312e36312d342e392d312e34610b208201527f362d312e32392d332e36322d312e39332d362e34382d312e39332d322e363820610b408201527f302d342e36352e34372d352e393320312e3431732d322e323220322e362d322e610b608201527f383320342e39386c2d352e35372d2e3736632e35312d322e333820312e33342d610b808201527f342e333120322e352d352e373720312e31362d312e343720322e38342d322e35610ba08201527f3920352e30332d332e333820322e31392d2e373920342e37332d312e31392037610bc08201527f2e36322d312e313973352e322e333420362e393920312e303163312e37392e36610be08201527f3820332e313120312e353220332e393520322e35352e383420312e303220312e610c008201527f343320322e333120312e373720332e38382e31392e39372e323820322e37322e610c208201527f323820352e323576372e3539633020352e32392e313220382e36342e33362031610c408201527f302e30342e323420312e342e373220322e373520312e343420342e3033682d35610c608201527f2e3935632d2e35392d312e31382d2e39372d322e35362d312e31342d342e3134610c808201527f5a6d2d2e34372d31322e3732632d322e30372e38342d352e313720312e35362d610ca08201527f392e3320322e31352d322e33342e33342d34202e37322d342e393720312e3134610cc08201527f2d2e39372e34322d312e373220312e30342d322e323520312e3835732d2e3739610ce08201527f20312e37312d2e373920322e37633020312e35322e353720322e373820312e37610d008201527f3220332e3820312e313520312e303120322e383320312e353220352e30352031610d208201527f2e353273342e31342d2e343820352e38352d312e343420322e39362d322e3237610d408201527f20332e37362d332e3934632e36312d312e32392e39322d332e31382e39322d35610d608201527f2e3639762d322e30395a6d31342e33332032392e382d2e36332d352e33356331610d808201527f2e32342e333420322e33332e353120332e32362e353120312e3237203020322e610da08201527f32382d2e323120332e30342d2e363373312e33382d312e303120312e38372d31610dc08201527f2e3737632e33362d2e35372e39342d312e393820312e37342d342e32342e3131610de08201527f2d2e33322e32372d2e37382e35312d312e33396c2d31322e37352d33332e3635610e008201527f68362e31346c362e39392031392e3435632e393120322e343720312e37322035610e208201527f2e303620322e343420372e37382e36352d322e363120312e34332d352e313720610e408201527f322e33342d372e36356c372e31382d31392e353868352e36396c2d31322e3738610e608201527f2033342e3136632d312e333720332e36392d322e343420362e32332d332e3139610e808201527f20372e36322d312e303120312e38382d322e313720332e32352d332e34382034610ea08201527f2e31332d312e33312e38382d322e383720312e33312d342e363820312e33312d610ec08201527f312e3120302d322e33322d2e32332d332e36372d2e375a6d35352e36332d3233610ee08201527f2e373620352e38382e3733632d2e393320332e34342d322e363520362e312d35610f008201527f2e313620382d322e353120312e392d352e373120322e38352d392e363220322e610f208201527f38352d342e393120302d382e38312d312e35312d31312e36392d342e35342d32610f408201527f2e38382d332e30332d342e33322d372e32372d342e33322d31322e373373312e610f608201527f34362d31302e303420342e33362d31332e313663322e39312d332e313220362e610f808201527f36382d342e36382031312e33322d342e363873382e313620312e35332031312e610fa08201527f303120342e353963322e383520332e303620342e323720372e333620342e3237610fc08201527f2031322e39312030202e33342d2e30312e38342d2e303320312e3532682d3235610fe08201527f2e3035632e323120332e363920312e323520362e353220332e313320382e34386110008201527f20312e383820312e393620342e323220322e393420372e303220322e393420326110208201527f2e3039203020332e38372d2e353520352e33352d312e363420312e34382d312e6110408201527f3120322e36352d322e383520332e35312d352e32355a6d2d31382e36392d392e6110608201527f326831382e3736632d2e32352d322e38332d2e39372d342e39342d322e31352d6110808201527f362e33362d312e38312d322e31392d342e31372d332e32392d372e30352d332e6110a08201527f32392d322e363120302d342e38312e38382d362e3620322e3633732d322e37376110c08201527f20342e30392d322e393620372e30325a6d33312e36362032302e30325635382e6110e08201527f373868352e313276352e303963312e33312d322e333820322e35312d332e39356111008201527f20332e36322d342e373173322e33322d312e313420332e36352d312e313463316111208201527f2e3932203020332e38372e363120352e383520312e38336c2d312e393620352e6111408201527f3238632d312e33392d2e38322d322e37382d312e32332d342e31382d312e32336111608201527f2d312e323420302d322e33362e33372d332e333520312e31322d2e39392e37356111808201527f2d312e3720312e37392d322e313220332e31322d2e363320322e30322d2e39356111a08201527f20342e32342d2e393520362e36347631372e3539682d352e36395a6d32312e376111c08201527f39203056343668392e33367634362e3337682d392e33365a4d3430372e3337206111e08201527f34366831372e313163332e3836203020362e382e3320382e38332e383920322e6112008201527f37322e3820352e303520322e323220362e393920342e323720312e393420322e6112208201527f303520332e343220342e353520342e343320372e353120312e303120322e39366112408201527f20312e353220362e363220312e35322031302e3936203020332e38322d2e34376112608201527f20372e31312d312e343220392e38372d312e313620332e33372d322e383220366112808201527f2e312d342e393720382e31392d312e363220312e35382d332e383220322e38326112a08201527f2d362e353820332e372d322e30372e36352d342e38332e39382d382e32392e396112c08201527f38682d31372e36325634365a6d392e333620372e38347633302e373168362e396112e08201527f3963322e3631203020342e352d2e313520352e36362d2e343420312e35322d2e6113008201527f333820322e37382d312e303220332e37382d312e393320312d2e393120312e386113208201527f322d322e3420322e34352d342e34382e36332d322e30382e39352d342e39312e6113408201527f39352d382e3439732d2e33322d362e33342d2e39352d382e32362d312e35322d6113608201527f332e34322d322e36362d342e34392d322e35382d312e382d342e33332d322e316113808201527f38632d312e33312d2e332d332e38372d2e34342d372e36392d2e3434682d342e6113a08201527f32315a22207374796c653d2266696c6c3a23666666222f3e3c7465787420793d6113c08201527f223637302220783d22333022207374796c653d22666f6e743a373070782073616113e082015273373996b9b2b934b31db334b6361d11b33333111f60611b61140082015260006110926136fe611414840185611cb3565b6c1e17ba32bc3a1f1e17b9bb339f60991b8152600d0190565b7f646174613a696d6167652f7376672b786d6c3b6261736536342c00000000000081526000825161374f81601a85016020870161190e565b91909101601a0192915050565b683d913730b6b2911d1160b91b8152825160009061378181600985016020880161190e565b6b1116101134b6b0b3b2911d1160a11b60099184019182015283516137ad81601584016020880161190e565b7f222c20226465736372697074696f6e223a20224f776e6572204944227d00000060159290910191820152603201949350505050565b7f646174613a6170706c69636174696f6e2f6a736f6e3b6261736536342c00000081526000825161381b81601d85016020870161190e565b91909101601d0192915050565b818103818111156105e0576105e0611ceb565b8281526040602082015260006111986040830184611932565b7f416363657373436f6e74726f6c3a206163636f756e742000000000000000000081526000835161388c81601785016020880161190e565b7001034b99036b4b9b9b4b733903937b6329607d1b60179184019182015283516138bd81602884016020880161190e565b01602801949350505050565b808201808211156105e0576105e0611ceb565b6000826138f957634e487b7160e01b600052601260045260246000fd5b500490565b80820281158282048414176105e0576105e0611ceb565b634e487b7160e01b600052603260045260246000fd5b60008161393a5761393a611ceb565b50600019019056fe4142434445464748494a4b4c4d4e4f505152535455565758595a6162636465666768696a6b6c6d6e6f707172737475767778797a303132333435363738392b2fa26469706673582212204a7a202c3fe4964e44fe3d91b4994a0dc371c45927de328fe51e5fff28e292af64736f6c63430008110033",
  "linkReferences": {},
  "deployedLinkReferences": {}
}